:030000000209539F
:0C095300787FE4F6D8FD7581280203A827
:100323000D0A6572726F722E000D0A446F6E65219D
:100333000D0A000D0A205B536C61766531204C4534
:10034300445D5B536C61766532204C45445D286E99
:100353006F207370616365293A20000D0A2054727F
:10036300616E736D697474696E67207061636B6528
:10037300743A20000D0A456E7465722061206E7513
:100383006D6265723A20000D0A546865206E756DC2
:1003930062657220796F7520656E7465726564207D
:0503A30069733A20001F
:10010600EFB4090040030201C9900116F8282873CC
:100116000201310201420201530201640201750229
:1001260001860201970201A80201B95395FEED640A
:10013600014C7004439401225394FE225395FDED25
:1001460064014C7004439402225394FD225395FBA0
:10015600ED64014C7004439404225394FB2253959E
:10016600F7ED64014C7004439408225394F722532C
:1001760095EFED64014C7004439410225394EF22E2
:100186005395DFED64014C7004439420225394DFB1
:10019600225395BFED64014C70044394402253945E
:1001A600BF2253957FED64014C7004439480225323
:1001B600947F22E4F595ED64014C70047594FF225A
:0401C600E4F59422A6
:0608BB00D2A3D2A57F14B8
:0208C1008F2680
:1008C300AF261526EF600BE4FEEEC3942350F10E22
:0208D30080F7AC
:0108D5002200
:100931008F27AF271527EF60077F321208C180F29A
:010941002293
:0B08F100AE07C2A37F111208FCE4FF59
:0D08FC005391DF8FB2E59130E5FBAFB222E2
:1006BA00C2A37F141208F7EF543FFED2A3C2A37F4E
:1006CA00201208FCE4FDEDC39E501A1201CAFF6015
:1006DA000C1208FC740129F9E43AFA8005E4FF12C5
:0A06EA0008FC0D80E11208BBC2A558
:0106F40022E3
:10072E00D2A530A5FDC2A37F131208F7EF543FFEEA
:10073E00D2A3C2A37F241208FCE4FDEDC39E501386
:10074E00E4FF1208FCEF120210740129F9E43AFAE0
:07075E000D80E8D2A3C2A543
:010765002271
:1006F500758DE6438E10758780759852758920D261
:100705008E439506539402E4F5B475B302C2A37FF4
:10071500191208F7EF4404FED2A3C2A37F091208F9
:08072500FCAF061208FCD2A390
:01072D0022A9
:08096B003099FDC2998F992219
:1007F7008B138A148915AB13AA14A9151201CA60A1
:10080700130515E5157002051414F91201CAFF1234
:05081700096B80E222E4
:100942003098FDC298E5991202101201CAFF0209FD
:010952006B39
:100766008B208A2189228021AB20AA21A92212016D
:10077600CAFF640D6018EF640A601374012522F540
:1007860022E43521F521FAA92212094280DAAB20AA
:08079600AA21A922E4020210CD
:04000300AB07AA0697
:10000700C3EB9410EA9427401B7C277D101202341F
:100017008F107E007C277D10120222C3EB9FFBEA24
:100027009EFA8003E4F510C3EB94E8EA9403401FBB
:100037007C037DE8AF03AE021202348F117E007C91
:10004700037DE8120222C3EB9FFBEA9EFA8003E4DA
:10005700F511C3EB9464EA9400401D7C007D64AF06
:1000670003AE021202348F12EF75F064A4FFC3EBE4
:100077009FFBEA95F0FA8003E4F512C3EB940AEAD2
:100087009400401D7C007D0AAF03AE021202348F3C
:1000970013EF75F00AA4FFC3EB9FFBEA95F0FA8014
:1000A70003E4F513AF03AE0774302510F510743071
:1000B7002511F51174302512F51274302513F51337
:1000C70074302EFEE510C394314007AF1012096B50
:1000D7008007E511C394314007AF1112096B800700
:1000E700E512C394314007AF1212096B8007E5137D
:0F00F700C394314005AF1312096BAF0602096BBA
:1004B5001201CAFFC394304009EFD394395003EFBA
:1004C50080231201CAFF6037C3943040F5EFD394FF
:1004D5003950EFAE10AF117C007D0A1202228E104A
:1004E5008F111201CA24D0FFE434FFFEEF2511F568
:1004F50011EE3510F510740129F9E43AFA80C3AE0E
:0305050010AF1123
:0105080022D0
:060408008B108A1189121D
:10040E00E4FEEEC39D5041AB10AA11A9121209428F
:10041E00AB10AA11A9121201CAFFC394304014EFF7
:10042E00D39439500E74012512F512E43511F511DD
:10043E000E80CFEFB40D06E4120210800B7BFF7A14
:10044E000379231207F780BAAB10AA11A912E4029E
:02045E0002108A
:060289008B238A24892565
:10028F00E4FFFE9000011201E37810C333CE33CEAA
:10029F00D8F9EE3395E0FDE4FFFEFCC004C005C0C5
:1002AF0006C007AB23AA24A9251201CA7818C333A5
:1002BF00CE33CED8F9EE3395E0FCD003D002D00187
:1002CF00D000EBFFEAFEE9FDEC48FCC004C005C01E
:1002DF0006C007AB23AA24A9259000021201E3FE52
:1002EF00D003D002D001D000EBFFEA4EFEE9FDE8CB
:1002FF00FCC004C005C006C007AB23AA24A92590E3
:10030F0000031201E3FFD003D002D001D000EB4F66
:03031F00FFEAFEF4
:0103220022B8
:1005C800AD07AC06ED7818CEC313CE13D8F91202D6
:1005D80010740129F9E43AFAEDAE047810CEC31389
:1005E800CE13D8F9120210740129F9E43AFAEC1280
:0D05F8000210740129F9E43AFAED02021034
:1007D100E4F528FB800EE528640D6011E528640A24
:1007E100600B7B007A00792812094280E97BFF7A4D
:0607F10003792C0207F75A
:10079E00E4F5B475B302C2A37F031208FC7F061200
:1007AE0008FC7F061208FCD2A31208F3EF54F1FEE8
:1007BE00D2A3C2A37F011208FCEE440CFF1208FC68
:0207CE00D2A3B4
:0107D0002206
:100865001208F1EF54DFFDD2A3C2A37F011208FCE9
:0C087500EEC43354E04DFF1208FCD2A387
:010881002254
:10090900AE07C2A37F031208FCAF061208FCAF06AC
:060919001208FCD2A3222B
:100882001208F1EF54F3FDD2A3C2A37F011208FCB8
:0C089200EE25E025E04DFF1208FCD2A38B
:01089E002237
:1008D6001208F1EF54FDFDD2A3C2A37F011208FC5A
:0A08E600EE25E04DFF1208FCD2A33E
:0108F00022E5
:10089F001208F1EF54EFFDD2A3C2A37F011208FC9F
:0B08AF00EEC454F04DFF1208FCD2A371
:0108BA00221B
:10058A00C2A37F121208F7EF54F8FED2A3C2A37FC8
:10059A00021208FCEE4DFF1208FCD2A3C2A37F058B
:1005AA001208FCE4FEEEC39D50111201CAFF1208A4
:0D05BA00FC740129F9E43AFA0E80EAD2A39C
:0105C7002211
:10050900C2A37F121208F7EF54F8FED2A3C2A37F49
:10051900021208FCEDC454F04EFF1208FCD2A3C22B
:10052900A37F221208FCE4FEEEC39D50111201CAFA
:10053900FF1208FC740129F9E43AFA0E80EAD2A301
:01054900228F
:0C095F00EF7003C2A522BF0102D2A52246
:02081C00AE0725
:10081E00C2A37F191208F7EF547FFDD2A3C2A37FA4
:10082E00091208FCEEC433333354804DFF1208FC1A
:02083E00D2A343
:010840002295
:02084100AE0700
:10084300C2A37F191208F7EF547FFDD2A3C2A37F7F
:10085300091208FCEEC4333354C04DFF1208FCD216
:01086300A3F1
:010864002271
:10054A00C2A37F141208F7EF543FFED2A3C2A37FBF
:10055A00201208FC7F011208FC7D01EDC39E501A8F
:10056A001201CAFF600C1208FC740129F9E43AFA74
:0F057A008005E4FF1208FC0D80E11208BBC2A54A
:01058900224F
:10091F00ED2401FFE433FEEF29F9EE3AFA1201CA92
:02092F00FF22A5
:04064200AE05AD074D
:10064600C2A37F141208F7EF543FFCD2A3C2A37FC4
:10065600201208FC7F021208FCAF051208FCAF0648
:100666001208FC7E03EEC39C5008E4FF1208FC0E41
:0706760080F31208BBC2A5CE
:01067D00225A
:04067E00AE05AD0711
:10068200C2A37F141208F7EF543FFCD2A3C2A37F88
:10069200201208FC7F031208FCAF051208FCAF060B
:1006A2001208FC7E03EEC39C5008E4FF1208FC0E05
:0706B20080F31208BBC2A592
:0106B900221E
:02060500D2A47D
:100607007BFF7A0379361207F77B007A0079161297
:1006170007667BFF7A03795E1207F77B007A00791A
:10062700161207F7E4F51A7B007A0079161206BA54
:0B063700051AE51AC3943240EE80C59E
:05046000AC07E4F51EED
:10046500C2A47B007A00791B12072E741B2CF8E6B8
:10047500FFB43108C280D284D2868016EFB4320828
:10048500D280C284D286800AEFB43306D280D28469
:10049500C286D2A4E4F51F7B007A00791B1206BA46
:0E04A500051FE51FC3940A40EE7F3212093195
:0204B30080B017
:1003A800E4FDFCFF1201067F041201067F0612011C
:1003B800060D7F031201067F051201067F07120151
:1003C80006D280D284D2861206F512079E7BFF7A67
:1003D8000379771207F77B007A0079087D05120404
:1003E800087B007A0079081204B58E0E8F0F7BFF08
:1003F8007A03798A1207F7AF0FAE0E12000380CD89
:1001CA00BB010689828A83E0225002E722BBFE0233
:0901DA00E32289828A83E4932266
:1001E300BB010CE58229F582E5833AF583E02250D1
:1001F30006E92582F8E622BBFE06E92582F8E2221B
:0D020300E58229F582E5833AF583E4932234
:10021000BB010689828A83F0225002F722BBFE01CD
:02022000F322C7
:10022200EF8DF0A4A8F0CF8CF0A428CE8DF0A42EF0
:02023200FE22AA
:10023400BC000BBE0029EF8DF084FFADF022E4CCAE
:10024400F875F008EF2FFFEE33FEEC33FCEE9DEC77
:10025400984005FCEE9DFE0FD5F0E9E4CEFD22EDBD
:10026400F8F5F0EE8420D21CFEADF075F008EF2F07
:10027400FFED33FD4007985006D5F0F222C398FDF8
:050284000FD5F0EA2295
:00000001FF
