:0300000002106289
:0C106200787FE4F6D8FD75812C020BA508
:100B20000D0A6572726F722E000D0A446F6E652198
:100B30000D0A000D0A205B536C61766531204C452F
:100B4000445D5B536C61766532204C45445D286E94
:100B50006F207370616365293A20000D0A2054727A
:100B6000616E736D697474696E67207061636B6523
:100B7000743A20000D0A456E7465722061206E750E
:100B80006D6265723A20000D0A546865206E756DBD
:100B900062657220796F7520656E74657265642078
:050BA00069733A20001A
:10090300EFB4090040030209C6900913F8282873BD
:1009130002092E02093F020950020961020972020B
:1009230009830209940209A50209B65395FEED64F1
:10093300014C7004439401225394FE225395FDED20
:1009430064014C7004439402225394FD225395FB9B
:10095300ED64014C7004439404225394FB22539599
:10096300F7ED64014C7004439408225394F7225327
:1009730095EFED64014C7004439410225394EF22DD
:100983005395DFED64014C7004439420225394DFAC
:10099300225395BFED64014C700443944022539459
:1009A300BF2253957FED64014C700443948022531E
:1009B300947F22E4F595ED64014C70047594FF2255
:0409C300E4F59422A1
:060FCA00D2A3D2A57F14A2
:020FD0008F2A66
:100FD200AF2A152AEF600BE4FEEEC3942350F10E04
:020FE20080F796
:010FE40022EA
:101040008F2BAF2B152BEF60077F32120FD080F262
:01105000227D
:0B100000AE07C2A37F1112100BE4FF2B
:0D100B005391DF8FB2E59130E5FBAFB222CB
:100DFC00C2A37F14121006EF543FFED2A3C2A37FEE
:100E0C002012100BE4FDEDC39E501A1209C7FF60AF
:100E1C000C12100B740129F9E43AFA8005E4FF1264
:0A0E2C00100B0D80E1120FCAC2A5E1
:010E36002299
:100E7000D2A530A5FDC2A37F13121006EF543FFE8A
:100E8000D2A3C2A37F2412100BE4FDEDC39E501326
:100E9000E4FF12100BEF120A0D740129F9E43AFA7B
:070EA0000D80E8D2A3C2A5FA
:010EA7002228
:100E3700758DE6438E10758780759852758920D217
:100E47008E439506539402E4F5B475B302C2A37FAB
:100E570019121006EF4404FED2A3C2A37F09121091
:080E67000BAF0612100BD2A321
:010E6F002260
:08106E003099FDC2998F99220F
:100F6B008B158A168917AB15AA16A9171209C76014
:100F7B00130517E5177002051614F91209C7FF12AE
:050F8B00106E80E2225F
:101051003098FDC298E599120A0D1209C7FF0210D6
:011061006E20
:100EA8008B228A2389248021AB22AA23A924120910
:100EB800C7FF640D6018EF640A601374012524F5F8
:100EC80024E43523F523FAA92412105180DAAB2241
:080ED800AA23A924E4020A0D7B
:04080000AB07AA0692
:10080400C3EB9410EA9427401B7C277D10120A3115
:100814008F127E007C277D10120A1FC3EB9FFBEA18
:100824009EFA8003E4F512C3EB94E8EA9403401FB4
:100834007C037DE8AF03AE02120A318F137E007C85
:10084400037DE8120A1FC3EB9FFBEA9EFA8003E4D0
:10085400F513C3EB9464EA9400401D7C007D64AFFF
:1008640003AE02120A318F14EF75F064A4FFC3EBD8
:100874009FFBEA95F0FA8003E4F514C3EB940AEACB
:100884009400401D7C007D0AAF03AE02120A318F32
:1008940015EF75F00AA4FFC3EB9FFBEA95F0FA800D
:1008A40003E4F515AF03AE0774302512F512743066
:1008B4002513F51374302514F51474302515F51526
:1008C40074302EFEE512C394314007AF1212106E3D
:1008D4008007E513C394314007AF1312106E8007ED
:1008E400E514C394314007AF1412106E8007E51568
:0F08F400C394314005AF1512106EAF0602106E9F
:100CB2001209C7FFC394304009EFD394395003EFB0
:100CC20080231209C7FF6037C3943040F5EFD394F5
:100CD2003950EFAE12AF137C007D0A120A1F8E123A
:100CE2008F131209C724D0FFE434FFFEEF2513F55A
:100CF20013EE3512F512740129F9E43AFA80C3AE03
:030D020012AF131A
:010D050022CB
:060C05008B128A13891412
:100C0B00E4FEEEC39D5041AB12AA13A9141210516E
:100C1B00AB12AA13A9141209C7FFC394304014EFE7
:100C2B00D39439500E74012514F514E43513F513D0
:100C3B000E80CFEFB40D06E4120A0D800B7BFF7A0A
:100C4B000B7920120F6B80BAAB12AA13A914E40212
:020C5B000A0D80
:060A86008B258A2689275A
:100A8C00E4FFFE9000011209E07810C333CE33CEA0
:100A9C00D8F9EE3395E0FDE4FFFEFCC004C005C0C0
:100AAC0006C007AB25AA26A9271209C77818C33395
:100ABC00CE33CED8F9EE3395E0FCD003D002D00182
:100ACC00D000EBFFEAFEE9FDEC48FCC004C005C019
:100ADC0006C007AB25AA26A9279000021209E0FE42
:100AEC00D003D002D001D000EBFFEA4EFEE9FDE8C6
:100AFC00FCC004C005C006C007AB25AA26A92790D8
:100B0C0000031209E0FFD003D002D001D000EB4F5C
:030B1C00FFEAFEEF
:010B1F0022B3
:100D4600AD07AC06ED7818CEC313CE13D8F9120A48
:100D56000D740129F9E43AFAEDAE047810CEC31306
:100D6600CE13D8F9120A0D740129F9E43AFAEC12F5
:0D0D76000A0D740129F9E43AFAED020A0DA4
:100F4500E4F52CFB800EE52C640D6011E52C640A9C
:100F5500600B7B007A00792C12105180E97BFF7AB7
:060F65000B7929020F6B5D
:100EE000E4F5B475B302C2A37F0312100B7F0612A0
:100EF000100B7F0612100BD2A3121002EF54F1FE5A
:100F0000D2A3C2A37F0112100BEE440CFF12100BF0
:020F1000D2A36A
:010F120022BC
:100F9000121000EF54DFFDD2A3C2A37F0112100B89
:0C0FA000EEC43354E04DFF12100BD2A33E
:010FAC002222
:10101800AE07C2A37F0312100BAF0612100BAF0668
:0610280012100BD2A322FE
:100FAD00121000EF54F3FDD2A3C2A37F0112100B58
:0C0FBD00EE25E025E04DFF12100BD2A342
:010FC9002205
:100FE500121000EF54FDFDD2A3C2A37F0112100B16
:0A0FF500EE25E04DFF12100BD2A311
:010FFF0022CF
:100D0600C2A37F14121006EF543FFED2A3C2A37FE4
:100D16002012100B7F0112100B7D01EDC39E501A9D
:100D26001209C7FF600C12100B740129F9E43AFA94
:0F0D36008005E4FF12100B0D80E1120FCAC2A559
:010D4500228B
:10102E00ED2401FFE433FEEF29F9EE3AFA1209C777
:02103E00FF228F
:040F13008F288D296D
:100F1700C2A37F14121006EF543FFED2A3C2A37FD1
:100F27002012100B7F0212100B7D01EDC39E50089B
:0D0F3700E4FF12100B0D80F3120FCAC2A5CB
:010F4400228A
:040DC000AE05AD07C8
:100DC400C2A37F14121006EF543FFCD2A3C2A37F28
:100DD4002012100B7F0312100BAF0512100BAF067D
:100DE40012100B7E03EEC39C5008E4FF12100B0E8E
:070DF40080F3120FCAC2A533
:010DFB0022D5
:020D8300D2A4F8
:100D85007BFF7A0B7933120F6B7B007A007918128F
:100D95000EA87BFF7A0B795B120F6B7B007A0079CB
:100DA50018120F6BE4F51C7B007A007918120DFC04
:0B0DB500051CE51CC3943240EE80C515
:050C5D00AC07E4F520E6
:100C6200C2A47B007A00791D120E70741D2CF8E666
:100C7200FFB43108C280D284D2868016EFB4320823
:100C8200D280C284D286800AEFB43306D280D28464
:100C9200C286D2A4E4F5217B007A00791D120DFCF4
:0E0CA2000521E521C3940A40EE7F3212104076
:020CB00080B012
:100BA500E4FDFCFF1209037F041209037F06120905
:100BB500030D7F031209037F051209037F0712093D
:100BC50003D280D284D286120E37120EE07BFF7AD2
:100BD5000B7974120F6B7B007A0079087D05120C76
:100BE500057B007A007908120CB28E0E8F0F7BFF01
:100BF5007A0B7987120F6BAF0FAE0E12080080CDFE
:1009C700BB010689828A83E0225002E722BBFE022E
:0909D700E32289828A83E4932261
:1009E000BB010CE58229F582E5833AF583E02250CC
:1009F00006E92582F8E622BBFE06E92582F8E22216
:0D0A0000E58229F582E5833AF583E493222F
:100A0D00BB010689828A83F0225002F722BBFE01C8
:020A1D00F322C2
:100A1F00EF8DF0A4A8F0CF8CF0A428CE8DF0A42EEB
:020A2F00FE22A5
:100A3100BC000BBE0029EF8DF084FFADF022E4CCA9
:100A4100F875F008EF2FFFEE33FEEC33FCEE9DEC72
:100A5100984005FCEE9DFE0FD5F0E9E4CEFD22EDB8
:100A6100F8F5F0EE8420D21CFEADF075F008EF2F02
:100A7100FFED33FD4007985006D5F0F222C398FDF3
:050A81000FD5F0EA2290
:00000001FF
