:03000000020EE508
:0C0EE500787FE4F6D8FD75812E020E0126
:100BC9000D0A6572726F722E000D0A446F6E6521EF
:100BD9000D0A000D0A205B536C61766531204C4586
:100BE900445D5B536C61766532204C45445D286EEB
:100BF9006F207370616365293A20000D0A205472D1
:100C0900616E736D697474696E67207061636B6579
:040C1900743A200009
:10090300EFB4090040030209C6900913F8282873BD
:1009130002092E02093F020950020961020972020B
:1009230009830209940209A50209B65395FEED64F1
:10093300014C7004439401225394FE225395FDED20
:1009430064014C7004439402225394FD225395FB9B
:10095300ED64014C7004439404225394FB22539599
:10096300F7ED64014C7004439408225394F7225327
:1009730095EFED64014C7004439410225394EF22DD
:100983005395DFED64014C7004439420225394DFAC
:10099300225395BFED64014C700443944022539459
:1009A300BF2253957FED64014C700443948022531E
:1009B300947F22E4F595ED64014C70047594FF2255
:0409C300E4F59422A1
:020EAE008F2C87
:100EB000AF2C152CEF600BE4FEEEC3942350F10E23
:020EC00080F7B9
:010EC200220D
:100EC3008F2DAF2D152DEF60077F32120EAE80F2FE
:010ED30022FC
:090E9800C2A37F11120EA1E4FFB8
:0D0EA1005391DF8FB2E59130E5FBAFB22237
:100C6A00C2A37F14120E9CEF543FFED2A3C2A37FED
:100C7A0020120EA1E4FDEDC39E501A1209C7FF60AF
:100C8A000C120EA1740129F9E43AFA8005E4FF1264
:100C9A000EA10D80E1D2A3D2A57F14120EAEC2A579
:010CAA002227
:100D5E00D2A530A5FDC2A37F13120E9CEF543FFE09
:100D6E00D2A3C2A37F24120EA1E4FDEDC39E5013A5
:100D7E00E4FF120EA1EF120A0D740129F9E43AFAFA
:070D8E000D80E8D2A3C2A50D
:010D9500223B
:100D2500758DE6438E10758780759852758920D22A
:100D35008E439506539402E4F5B475B302C2A37FBE
:100D450019120E9CEF4404FED2A3C2A37F09120E12
:080D5500A1AF06120EA1D2A30A
:010D5D002273
:080EF1003099FDC2998F99228E
:100E54008B1E8A1F8920AB1EAA1FA9201209C760F6
:100E6400130520E5207002051F14F91209C7FF12AB
:050E74000EF180E222F6
:100ED4003098FDC298E599120A0D1209C7FF020E57
:010EE400F11C
:100D96008B218A2289238021AB21AA22A923120929
:100DA600C7FF640D6018EF640A601374012523F50C
:100DB60023E43522F522FAA923120ED480DAAB21D8
:080DC600AA22A923E4020A0D90
:04080000AB07AA0692
:10080400C3EB9410EA9427401B7C277D10120A3115
:100814008F1A7E007C277D10120A1FC3EB9FFBEA10
:100824009EFA8003E4F51AC3EB94E8EA9403401FAC
:100834007C037DE8AF03AE02120A318F1B7E007C7D
:10084400037DE8120A1FC3EB9FFBEA9EFA8003E4D0
:10085400F51BC3EB9464EA9400401D7C007D64AFF7
:1008640003AE02120A318F1CEF75F064A4FFC3EBD0
:100874009FFBEA95F0FA8003E4F51CC3EB940AEAC3
:100884009400401D7C007D0AAF03AE02120A318F32
:100894001DEF75F00AA4FFC3EB9FFBEA95F0FA8005
:1008A40003E4F51DAF03AE077430251AF51A74304E
:1008B400251BF51B7430251CF51C7430251DF51DF6
:1008C40074302EFEE51AC394314007AF1A120EF1AC
:1008D4008007E51BC394314007AF1B120EF180075C
:1008E400E51CC394314007AF1C120EF18007E51DCF
:0F08F400C394314005AF1D120EF1AF06020EF195
:100B75001209C7FFC394304009EFD394395003EFEE
:100B850080231209C7FF6037C3943040F5EFD39433
:100B95003950EFAE2AAF2B7C007D0A120A1F8E2A30
:100BA5008F2B1209C724D0FFE434FFFEEF252BF568
:100BB5002BEE352AF52A740129F9E43AFA80C3AEF9
:030BC5002AAF2B29
:010BC800220A
:060C1D008B248A258926C4
:100C2300E4FEEEC39D503FAB24AA25A926120ED4A1
:100C3300AB24AA25A9261209C7FFC394304014EF99
:100C4300D39439500E74012526F526E43525F52570
:100C53000E80CFEFB40D04E4020A0D7BFF7A0B790B
:060C6300C9120E5480BC12
:010C69002268
:060A86008B278A28892954
:100A8C00E4FFFE9000011209E07810C333CE33CEA0
:100A9C00D8F9EE3395E0FDE4FFFEFCC004C005C0C0
:100AAC0006C007AB27AA28A9291209C77818C3338F
:100ABC00CE33CED8F9EE3395E0FCD003D002D00182
:100ACC00D000EBFFEAFEE9FDEC48FCC004C005C019
:100ADC0006C007AB27AA28A9299000021209E0FE3C
:100AEC00D003D002D001D000EBFFEA4EFEE9FDE8C6
:100AFC00FCC004C005C006C007AB27AA28A92990D2
:100B0C0000031209E0FFD003D002D001D000EB4F5C
:030B1C00FFEAFEEF
:010B1F0022B3
:100CAB00AD07AC06ED7818CEC313CE13D8F9120AE4
:100CBB000D740129F9E43AFAEDAE047810CEC313A2
:100CCB00CE13D8F9120A0D740129F9E43AFAEC1291
:0D0CDB000A0D740129F9E43AFAED020A0D40
:100E2E00E4F52EFB800EE52E640D6011E52E640AAE
:100E3E00600B7B007A00792E120ED480E97BFF7A4C
:060E4E000B79D2020E54E4
:020E7900AE07C2
:100E7B00120E98EF54DFFDD2A3C2A37F01120EA175
:0C0E8B00EEC43354E04DFF120EA1D2A3C0
:010E97002238
:100DCE00E4F5B475B302C2A37F03120EA17F041221
:100DDE000EA17F04120EA1D2A3120E98EF54F1FEB3
:100DEE00D2A3C2A37F01120EA1EE440CFF120EA1DC
:020DFE00D2A37E
:010E000022CF
:020CE800D2A494
:100CEA007BFF7A0B79DC120E547B007A00791012A2
:100CFA000D967BFF7A0C7904120E547B007A0079E8
:100D0A0010120E54E4F5147B007A007910120C6A62
:0B0D1A000514E514C3943240EE80C5C0
:050B2000AC07E4F5182C
:100B2500C2A47B007A007915120D5E74152CF8E6C7
:100B3500FFB43108C280D284D2868016EFB4320861
:100B4500D280C284D286800AEFB43306D280D284A2
:100B5500C286D2A4E4F5197B007A007915120C6AD5
:0E0B65000519E519C3940A40EE7F32120EC343
:020B730080B050
:100E0100E4FDFCFF1209037F041209037F061209A6
:100E1100030D7F031209037F051209037F071209DE
:0D0E210003D280D284D286120D25020DCEA0
:1009C700BB010689828A83E0225002E722BBFE022E
:0909D700E32289828A83E4932261
:1009E000BB010CE58229F582E5833AF583E02250CC
:1009F00006E92582F8E622BBFE06E92582F8E22216
:0D0A0000E58229F582E5833AF583E493222F
:100A0D00BB010689828A83F0225002F722BBFE01C8
:020A1D00F322C2
:100A1F00EF8DF0A4A8F0CF8CF0A428CE8DF0A42EEB
:020A2F00FE22A5
:100A3100BC000BBE0029EF8DF084FFADF022E4CCA9
:100A4100F875F008EF2FFFEE33FEEC33FCEE9DEC72
:100A5100984005FCEE9DFE0FD5F0E9E4CEFD22EDB8
:100A6100F8F5F0EE8420D21CFEADF075F008EF2F02
:100A7100FFED33FD4007985006D5F0F222C398FDF3
:050A81000FD5F0EA2290
:00000001FF
