:03000000020603F2
:0C060300787FE4F6D8FD75811302052A0B
:100366000D0A446F6E65210D0A000D0A200D0A5212
:100376006563656976657220737461727465642E4F
:10038600000D0A000D0A200D0A4E65772054726191
:100396006E736D697373696F6E3A000D0A456E640C
:1003A600206F66205472616E736D697373696F6E28
:1003B6002E20526563656976656420002F323030E1
:1003C600207061636B6574732073656E742E2050A4
:1003D60061636B6574206C6F73733A20000D0A4578
:0F03E6006E74657220436F6D6D656E743A200002
:10021000EFB4090040030202D3900220F8282873AB
:1002200002023B02024C02025D02026E02027F02E7
:1002300002900202A10202B20202C35395FEED64D3
:10024000014C7004439401225394FE225395FDED1A
:1002500064014C7004439402225394FD225395FB95
:10026000ED64014C7004439404225394FB22539593
:10027000F7ED64014C7004439408225394F7225321
:1002800095EFED64014C7004439410225394EF22D7
:100290005395DFED64014C7004439420225394DFA6
:1002A000225395BFED64014C700443944022539453
:1002B000BF2253957FED64014C7004439480225318
:1002C000947F22E4F595ED64014C70047594FF224F
:0402D000E4F594229B
:0205DD008F0984
:1005DF00AF091509EF600BE4FEEEC3942350F10E43
:0205EF0080F793
:0105F10022E7
:0705AF00A280B392807F0AD5
:1005B6008F08AF081508EF60077F321205DD80F25D
:0105C6002212
:0905C700C2A37F111205D0E4FF6C
:0D05D0005391DF8FB2E59130E5FBAFB22211
:10059500AE07C2A37F201205D0AF061205D0D2A3A5
:0A05A500D2A57F011205DDC2A522D8
:1005F200D2A530A5FDC2A37F241205CBD2A3C2A5EA
:0106020022D5
:10045B00758DE6438E10758780759852758920D2FD
:10046B008E439506539402E4F5B475B302C2A37F91
:10047B00191205CBEF4404FED2A3C2A37F091205C8
:08048B00D0AF061205D0D2A388
:010493002246
:080619003099FDC2998F99226E
:100551008B0E8A0F8910AB0EAA0FA9101202D4605C
:10056100130510E5107002050F14F91202D4FF12E1
:05057100061980E222E2
:0A060F003098FDC298E5990202ED53
:100494008B118A1289138021AB11AA12A91312029B
:1004A400D4FF640D6018EF640A601374012513F51A
:1004B40013E43512F512FAA91312060F80DAAB1100
:0804C400AA12A913E40202EDE3
:04010D00AB07AA068C
:10011100C3EB9410EA9427401B7C277D1012031136
:100121008F0D7E007C277D101202FFC3EB9FFBEA3F
:100131009EFA8003E4F50DC3EB94E8EA9403401FB3
:100141007C037DE8AF03AE021203118F0E7E007CAB
:10015100037DE81202FFC3EB9FFBEA9EFA8003E4F2
:10016100F50EC3EB9464EA9400401D7C007D64AFFE
:1001710003AE021203118F0FEF75F064A4FFC3EBFE
:100181009FFBEA95F0FA8003E4F50FC3EB940AEACA
:100191009400401D7C007D0AAF03AE021203118F53
:1001A10010EF75F00AA4FFC3EB9FFBEA95F0FA800C
:1001B10003E4F510AF03AE077430250DF50D74306F
:1001C100250EF50E7430250FF50F74302510F5103E
:1001D10074302EFEE50DC394314007AF0D120619A0
:1001E1008007E50EC394314007AF0E120619800750
:1001F100E50FC394314007AF0F1206198007E510D0
:0F020100C394314005AF10120619AF060206195B
:1004FF00E4F50DFB8013E50D640D6016E50D640A40
:10050F006010AF0D1206197B007A00790D12060FDD
:0B051F0080E47BFF7A0379660205513F
:02057600AE07CE
:100578001205C7EF54DFFDD2A3C2A37F011205D035
:0C058800EEC43354E04DFF1205D0D2A3A6
:010594002244
:1004CC00E4F5B475B302C2A37F031205D07F011209
:1004DC0005D07F011205D0D2A31205C7EF54F1FE4F
:1004EC00D2A3C2A37F011205D0EE440CFF1205D09B
:0204FC00D2A389
:0104FE0022DB
:1003F5007D10D2A42083FDE4FC7F011205957F05C5
:100405001205DDAF05120595A280B392800CBC6480
:10041500E87F0A1205B6C2807C61AF041205951209
:1004250005AF7B31AF031205951205AF0BBB3AF44F
:100435000CBC75E6E4FC7F04120595A280B392809E
:100445007F051205DD0CBC64ED0DEDD3941940025A
:060455007D10D280809EA4
:10000300E4F508F509750A01F50BF50CC2A47BFFAD
:100013007A0379701205511205F28F08E508C3942B
:10002300304007E508D39439400EE508C394614096
:1000330038E508D3947A5031E50A702DF509C2806A
:10004300E508C394614010E508D3947A50097BFF17
:100053007A037987120551050CE50C7002050BAF85
:1000630008120619E4F50880AEE50864017037E567
:100073000970331205F28F08E508C39410401AE59E
:1000830008D3941950137BFF7A03798A12055174AC
:10009300202508F508FF120619750901E4F50AF58C
:1000A3000BF50C02001AE5086404600302001AE56C
:1000B3000A600302001AF509750A017BFF7A0379C6
:1000C300A1120551AF0CAE0B12010D7BFF7A037920
:1000D300C2120551C374C8950CFFE4950BFE7C0056
:1000E3007D641202FF7DC81203118E0B8F0C120167
:1000F3000D7F25120619E4F50BF50C7BFF7A0379C6
:0A010300E31205511204FF02001A76
:10052A00E4FDFCFF1202100D7F031202107F051278
:10053A000210D28012045B1204CC2083030203F55A
:07054A0020850312000322CB
:1002D400BB010689828A83E0225002E722BBFE0228
:0902E400E32289828A83E493225B
:1002ED00BB010689828A83F0225002F722BBFE01F0
:0202FD00F322EA
:1002FF00EF8DF0A4A8F0CF8CF0A428CE8DF0A42E13
:02030F00FE22CC
:10031100BC000BBE0029EF8DF084FFADF022E4CCD0
:10032100F875F008EF2FFFEE33FEEC33FCEE9DEC99
:10033100984005FCEE9DFE0FD5F0E9E4CEFD22EDDF
:10034100F8F5F0EE8420D21CFEADF075F008EF2F29
:10035100FFED33FD4007985006D5F0F222C398FD1A
:050361000FD5F0EA22B7
:00000001FF
