:100173000D0A002D2D2D54686520556E697420528B
:10018300616E676520546573742D2D2D0D0A005023
:100193006C65617365207072657373205320746F8F
:1001A300207265717565737420736C617665206662
:1001B3006F7220666565646261636B2E00546573BC
:1001C30074206E6F200052657175657374207365BA
:1001D3006E740D0A00464545444241434B20524547
:1001E3004345495645442E20534C41564520414CE6
:1001F300495645210D0A004E6F20666565646261AC
:10020300636B2E2E2E2E2E2E2E2E2E3D28200D0AE3
:1002130000000000000000000000000000000000DB
:1002230000000000000000000000000000000000CB
:0102330000CA
:10048E00780A7C007D007BFF7A0279147E007F1053
:10049E001200D3E4FFEF24F0FE740A2FF8A6060F25
:0C04AE00BF10F27B007A00790A020454AF
:10041700780A7C007D007BFF7A0279247E007F10BA
:100427001200D37B007A00790A7D3712037AEF60D6
:1004370019E4FF740A2FF8E6FEC374FF9F6E60038A
:0C0447007F00220FBF10EC7F01227F001D
:010453002286
:100234001203D812031B7BFF7A0179731204BA7B71
:10024400FF7A0179761204BA7BFF7A01799212045B
:10025400BA7BFF7A0179731204BA7BFF7A0179C001
:100264001204BAAF091202B97508667BFF7A0179E4
:10027400731204BAE508C394614028E508D3947A5C
:10028400502112048E7BFF7A0179C91204BA120438
:1002940017EF7BFF60067A0179D880047A0179FA36
:1002A4001204BA05097BFF7A0179731204BA7F013B
:0502B40012050580A504
:10031B00E4F5B475B302C2A37F19120516E4FF12FC
:10032B000516EF4404F50BD2A3C2A37F09120516E1
:10033B00AF0B120516D2A3C2A37F031205167F10B3
:10034B001205167F10120516D2A3C2A37F11120538
:10035B0016E4FF120516EF54F1F50AD2A3C2A37FE0
:0E036B0001120516E50A440CFF120516D2A376
:010379002261
:060454008B1A8A1B891CB3
:10045A00D2A4C2A37F20120516E4F51DAB1AAA1B6B
:10046A00A91C851D82758300120112FF120516054B
:10047A001DE51DC3941040E4D2A3D2A57F10120437
:03048A00DFC2A529
:01048D00224C
:08037A008B1A8A1B891C8D1DE2
:10038200E4F51EC2A4D2A5E51D601320A513E51D48
:10039200D39400400C7F0A1204DF151D80ED30A5B6
:1003A200FD20A5037F0022C2A37F24120516E4F5D7
:1003B2001EE4FF120516AB1AAA1BA91C851E827524
:1003C2008300EF120151051EE51EC3941040E2D2D4
:0503D200A3C2A57F019C
:0103D7002203
:1003D800758DE6438E10758780759852758920D281
:1003E8008E439506439402E4F5B475B302C2A37F25
:1003F80019120516E4FF120516EF4404F50AD2A3F4
:0E040800C2A37F09120516AF0A120516D2A371
:0104160022C3
:08052F003099FDC2998F992259
:1004BA008B0A8A0B890CAB0AAA0BA90C1200F960E9
:1004CA0013050CE50C7002050B14F91200F9FF1262
:0504DA00052F80E22265
:1004F4003098FDC298E59912013F1200F9FF0205F8
:010504002FC7
:1002B9007D02ED1460071470067E6480027E0AEFE9
:1002C900C39E4015EF8EF0842430FC740A2DF8A6E5
:1002D90004EF8EF084AFF08006740A2DF87630DDD5
:1002E900D1EF2430F50AE50CC3943140047D028036
:1002F90009E50BC3943140027D01EDC3940040111F
:10030900ED9403500C740A2DF8E6FF12052F1D8099
:01031900E9FA
:01031A0022C0
:0204DF008F1F6D
:1004E100AF1F151FEF600BE4FEEEC3942350F10E16
:0204F10080F792
:0104F30022E6
:100505008F0AAF0A150AEF60077F321204DF80F207
:0105150022C3
:0D0516005391DF8FB2E59130E5FBAFB222CB
:03000000020523D3
:0C052300787FE4F6D8FD75811F020234D9
:10000300E709F608DFFA8046E709F208DFFA803EDF
:1000130088828C83E709F0A3DFFA8032E309F608CC
:10002300DFFA8078E309F208DFFA807088828C8334
:10003300E309F0A3DFFA806489828A83E0A3F608E8
:10004300DFFA805889828A83E0A3F208DFFA804CC2
:1000530080D280FA80C680D4806980F28033801099
:1000630080A680EA809A80A880DA80E280CA803302
:1000730089828A83ECFAE493A3C8C582C8CCC5837A
:10008300CCF0A3C8C582C8CCC583CCDFE9DEE7804A
:100093000D89828A83E493A3F608DFF9ECFAA9F0C9
:1000A300EDFB2289828A83ECFAE0A3C8C582C8CC1F
:1000B300C583CCF0A3C8C582C8CCC583CCDFEADE38
:1000C300E880DB89828A83E493A3F208DFF980CC9A
:1000D30088F0EF60010E4E60C388F0ED2402B40493
:1000E3000050B9F582EB2402B4040050AF2323453A
:0600F3008223900053730C
:1000F900BB010689828A83E0225002E722BBFE0205
:09010900E32289828A83E4932237
:10011200BB010CE58229F582E5833AF583E02250A2
:1001220006E92582F8E622BBFE06E92582F8E222EC
:0D013200E58229F582E5833AF583E4932206
:10013F00BB010689828A83F0225002F722BBFE019F
:02014F00F32299
:10015100F8BB010DE58229F582E5833AF583E8F0E4
:10016100225006E92582C8F622BBFE05E92582C890
:02017100F22278
:00000001FF
