:1009D4000000000000000000000000000000000013
:0209E400000011
:10037D0078007C007D017BFF7A0979D47E007F12A5
:10038D001200D3E4900012F0A3F012086A1205CC0B
:10039D007E007F107D007B017A00791412019F7B16
:1003AD00017A007914120788900014E0B4010B7BD8
:1003BD00017A00791412073980D6900014E0B40246
:1003CD00CFE4900024F0A3F0900015E0FF900026FC
:1003DD00F0900016E0FE900027F0FD12063490001C
:1003ED0025E07021900024E0C3940550189000265C
:1003FD00E0FFA3E0FD1208AE900025EFF090002481
:10040D00E004F080D9900025E0900017F0A3740A65
:10041D00F0E4A3F07B017A0079141208F002039D39
:10094D005200470000000000000000000000000001
:0D095D000000000000410045004100460080
:10092300900077E0FF900074E0B5071B900078E03B
:10093300FF900075E0B5070F900079E0FF90007617
:0A094300E0B507037F01227F0022C8
:1009870090007DE012013F90007EE090000112018F
:0B0997005190007FE09000020201512F
:1005CC00E4F5B475B302C2A37F191209F7E4FF1264
:1005DC0009F7EF4404900029F0D2A3C2A37F0912BB
:1005EC0009F7900029E0FF1209F7D2A3C2A37F03F9
:1005FC001209F77F101209F77F101209F7D2A3C264
:10060C00A37F111209F7E4FF1209F7EF54F19000E0
:10061C0028F0D2A3C2A37F011209F7900028E0446E
:07062C000CFF1209F7D2A335
:0106330022A4
:0B07D600900039EBF0A3EAF0A3E9F07B
:1007E100C2A37F201209F7E490003CF090003CE0A6
:1007F100FFC39410501F900039E0FBA3E0FAA3E07F
:10080100F98F82758300120112FF1209F790003CE3
:10081100E004F080D7D2A3D2A57F101209A2C2A50D
:0108210022B4
:0B082200900080EBF0A3EAF0A3E9F0E7
:10082D00D2A530A5FDC2A37F241209F7E490008361
:10083D00F0E4FF1209F7900080E0FBA3E0FAA3E0DB
:10084D00F9A3E0F582758300EF120151900083E06A
:0C085D0004F0E0C3941040D9D2A3C2A55F
:01086900226C
:1006E9005363616E6E696E6720666F7220736C6109
:1006F90076657320616C6976652E2E0D0A00466F4A
:10070900756E642074686520666F6C6C6F77696EAE
:100719006720736C617665733A200D0A00416C6934
:100729007665210D0A0054696D656F75740D0A00AF
:0B073900900028EBF0A3EAF0A3E9F029
:10074400740112013F900045E0FF900028E0FBA3F4
:10075400E0FAA3E0F9900001EF120151D2A4E49071
:10076400002BF0900028E0FBA3E0FAA3E0F91207C5
:10077400D690002BE004F0E0C3940540E6900045D9
:03078400E004F09E
:01078700224F
:100634009000297402F0A3EFF0A3EDF0900045E0E0
:1006440090002CF09000287404F0900028E0FFC380
:100654009410501474292FF582E43400F583E4F0E7
:10066400900028E004F080E2D2A4E4900028F07B1B
:10067400017A0079291207D6900028E004F0E0C33B
:0A068400940540EB900045E004F0FF
:01068E002249
:10068F0090005A7404F0E4A3F0A3F0900045E090BA
:10069F00005DF09000597404F0900059E0FFC3948E
:1006AF00105014745A2FF582E43400F583E4F0905F
:1006BF000059E004F080E2D2A4E4900059F07B01ED
:1006CF007A00795A1207D6900059E004F0E0C394EB
:0906DF000540EB900045E004F039
:0106E80022EF
:0B042D0090002CEBF0A3EAF0A3E9F034
:10043800E4900042F0A3F0C2A4D2A520A516900033
:1004480042E0C39432500D7F0A1209A2900042E0A4
:1004580004F080E720A5037F0022C2A37F241209AD
:10046800F7E4900042F0E4FF1209F7900042E0241C
:1004780032F582E43400F583EFF0900042E004F0B6
:10048800E0C3941040E0D2A3C2A5900032E0B403C8
:1004980029A3E0FF90002CE0FBA3E0FAA3E0F9EF2A
:1004A80012013F900034E0FF90002FE0FBA3E0FA38
:0C04B800A3E0F9EF12013F7F01227F005A
:0104C4002215
:0808AE00900028EFF0A3EDF02B
:1008B60090002F7401F0A37400F0A3742BF07B0159
:1008C6007A00792A12042D90002AE0FE900028E092
:1008D600B5060C90002BE0FE900029E06E6002E465
:0908E600FFEF60037F01227F0097
:0108EF0022E6
:0E01CB0090006AEBF0A3EAF0A3E9F0A3EDF0D8
:1001D900E490006FF0A3F090006DE0FF90006FE0F5
:1001E900C39F40030202C6A3E0C394324003020244
:0101F900C63F
:1001FA0090002F7401F0A37400F0A37473F07B01D4
:10020A007A00797212042D90006EEFF0E49000717A
:10021A00F090006FE0FF900071E0FED39F50509085
:10022A00006AE0FBA3E0FAA3E0F975F002EEA4F598
:10023A008285F083120112FF900072E0B5072890C0
:10024A000071E075F002A4FF90006AA3A3E02FF901
:10025A00EA35F0FA900001120112FF900073E0B53E
:10026A000705E490006EF0900071E004F080A2901F
:10027A00006EE0603E900072E0FF90006AE0FBA32F
:10028A00E0FAA3E0F990006FE0FE75F002A4F582AF
:10029A0085F083EF120151900073E0FDEE75F002D4
:1002AA00A429F9EA35F0FA900001ED120151900003
:0902BA006F8003900070E004F075
:0802C3000201E090006FE0FF72
:0102CB002210
:1002CC00E4900086F0A3F07BFF7A0679E91208F03F
:1002DC007BFF7A0779071208F09000867401F09082
:1002EC0000877403F0900087E0FDC394085072906F
:1002FC000086E0FF120634E4900084F0A3F0900036
:10030C0085E07021900084E0C3940A501890008618
:10031C00E0FFA3E0FD1208AE900085EFF0900084A2
:10032C00E004F080D9900086E0FF1205517F201286
:10033C000A04900087E0FF1205517F20120A0490F6
:10034C000085E07BFF60067A07792680047A0779BE
:10035C002F1208F07F0A1209BD900087E004F0808C
:10036C0084900086E004F0E0C3940550030202EB95
:01037C00225E
:10086A00758DE6438E10758780759852758920D2EA
:10087A008E439506439402E4F5B475B302C2A37F8E
:10088A00191209F7E4FF1209F7EF4404900028F05F
:10089A00D2A3C2A37F091209F7900028E0FF120928
:0308AA00F7D2A3DF
:0108AD002228
:080A04003099FDC2998F99227F
:1008F000900028EBF0A3EAF0A3E9F0900028E0FBD9
:10090000A3E0FAA3E0F91200F96017900028A3E42D
:1009100075F001120189A9F0FA1200F9FF120A0418
:0309200080D92259
:100551007D02ED1460071470067E6480027E0AEF4E
:10056100C39E401BEF8EF0842430FC74882DF582ED
:10057100E43400F583ECF0EF8EF084AFF0800D747D
:10058100882DF582E43400F5837430F0DDC4EF2466
:1005910030900088F090008AE0C3943140047D02DD
:1005A100800B900089E0C3943140027D01EDC3943A
:1005B100004017ED9403501274882DF582E4340045
:0A05C100F583E0FF120A041D80E339
:0105CB00220D
:1009E6003098FDC298E59912013F1200F9FF020AFC
:0109F60004FC
:10078800900028EBF0A3EAF0A3E9F080229000287B
:10079800E0FBA3E0FAA3E0F91200F9FF640D601F83
:1007A800EF640A601A900029E475F0011201739051
:1007B8000028E0FBA3E0FAA3E0F91209E680CE9056
:0E07C8000028E0FBA3E0FAA3E0F9E402013F01
:10096B007401A807088002C333D8FCFEF4FC52952F
:0C097B00EDB40104EE429422EC529422F0
:0509A200900044EFF09D
:1009A700900044E0FF14F0EF600BE4FEEEC39423E5
:0509B70050EE0E80F778
:0109BC002218
:1009BD0090008BEFF090008BE0FF14F0EF60077F5D
:0709CD00321209A280EF22A3
:0D09F7005391DF8FB2E59130E5FBAFB222E6
:030000000204C532
:0C04C500787FE4F6D8FD75810702050C75
:10000300E709F608DFFA8046E709F208DFFA803EDF
:1000130088828C83E709F0A3DFFA8032E309F608CC
:10002300DFFA8078E309F208DFFA807088828C8334
:10003300E309F0A3DFFA806489828A83E0A3F608E8
:10004300DFFA805889828A83E0A3F208DFFA804CC2
:1000530080D280FA80C680D4806980F28033801099
:1000630080A680EA809A80A880DA80E280CA803302
:1000730089828A83ECFAE493A3C8C582C8CCC5837A
:10008300CCF0A3C8C582C8CCC583CCDFE9DEE7804A
:100093000D89828A83E493A3F608DFF9ECFAA9F0C9
:1000A300EDFB2289828A83ECFAE0A3C8C582C8CC1F
:1000B300C583CCF0A3C8C582C8CCC583CCDFEADE38
:1000C300E880DB89828A83E493A3F208DFF980CC9A
:1000D30088F0EF60010E4E60C388F0ED2402B40493
:1000E3000050B9F582EB2402B4040050AF2323453A
:0600F3008223900053730C
:1000F900BB010689828A83E0225002E722BBFE0205
:09010900E32289828A83E4932237
:10011200BB010CE58229F582E5833AF583E02250A2
:1001220006E92582F8E622BBFE06E92582F8E222EC
:0D013200E58229F582E5833AF583E4932206
:10013F00BB010689828A83F0225002F722BBFE019F
:02014F00F32299
:10015100F8BB010DE58229F582E5833AF583E8F0E4
:10016100225006E92582C8F622BBFE05E92582C890
:02017100F22278
:10017300C5F0F8A3E028F0C5F0F8E5821582700217
:060183001583E038F022B4
:10018900A3F8E0C5F025F0F0E58215827002158329
:06019900E0C838F0E82286
:10019F00EF4E6012EF60010EEDBB010B89828A8377
:1001AF00F0A3DFFCDEFA2289F05007F709DFFCA984
:0C01BF00F022BBFEFCF309DFFCA9F022DB
:1004D10002037DE493A3F8E493A34003F68001F2C1
:1004E10008DFF48029E493A3F85407240CC8C3332C
:1004F100C4540F4420C8834004F456800146F6DFFB
:10050100E4800B010204081020408090094DE47E34
:10051100019360BCA3FF543F30E509541FFEE493EF
:10052100A360010ECF54C025E060A840B8E493A3B6
:10053100FAE493A3F8E493A3C8C582C8CAC583CAE1
:10054100F0A3C8C582C8CAC583CADFE9DEE780BE99
:01096A00008C
:00000001FF
