:1009D1000000000000000000000000000000000016
:0209E100000014
:10037D0078007C007D017BFF7A0979D17E007F12A8
:10038D001200D3E4900012F0A3F01208671205C911
:10039D007E007F107D007B017A00791412019F7B16
:1003AD00017A007914120785900014E0B4010B7BDB
:1003BD00017A00791412073680D6900014E0B40249
:1003CD00CFE4900024F0A3F0900015E0FF900026FC
:1003DD00F0900016E0FE900027F0FD12063190001F
:1003ED0025E07021900024E0C3940550189000265C
:1003FD00E0FFA3E0FD1208AB900025EFF090002484
:10040D00E004F080D9900025E0900017F0A3740A65
:0D041D00F07B017A0079141208ED02039DB6
:10094A005200470000000000000000000000000004
:0D095A000000000000410045004100460083
:10092000900077E0FF900074E0B5071B900078E03E
:10093000FF900075E0B5070F900079E0FF9000761A
:0A094000E0B507037F01227F0022CB
:1009840090007DE012013F90007EE0900001120192
:0B0994005190007FE090000202015132
:1005C900E4F5B475B302C2A37F191209F4E4FF126A
:1005D90009F4EF4404900029F0D2A3C2A37F0912C1
:1005E90009F4900029E0FF1209F4D2A3C2A37F0302
:1005F9001209F47F101209F47F101209F4D2A3C270
:10060900A37F111209F4E4FF1209F4EF54F19000E9
:1006190028F0D2A3C2A37F011209F4900028E04474
:070629000CFF1209F4D2A33B
:0106300022A7
:0B07D300900039EBF0A3EAF0A3E9F07E
:1007DE00C2A37F201209F4E490003CF090003CE0AC
:1007EE00FFC39410501F900039E0FBA3E0FAA3E082
:1007FE00F98F82758300120112FF1209F490003CEA
:10080E00E004F080D7D2A3D2A57F1012099FC2A513
:01081E0022B7
:0B081F00900080EBF0A3EAF0A3E9F0EA
:10082A00D2A530A5FDC2A37F241209F4E490008367
:10083A00F0E4FF1209F4900080E0FBA3E0FAA3E0E1
:10084A00F9A3E0F582758300EF120151900083E06D
:0C085A0004F0E0C3941040D9D2A3C2A562
:01086600226F
:1006E6005363616E6E696E6720666F7220736C610C
:1006F60076657320616C6976652E2E0D0A00466F4D
:10070600756E642074686520666F6C6C6F77696EB1
:100716006720736C617665733A200D0A00416C6937
:100726007665210D0A0054696D656F75740D0A00B2
:0B073600900028EBF0A3EAF0A3E9F02C
:10074100740112013F900045E0FF900028E0FBA3F7
:10075100E0FAA3E0F9900001EF120151D2A4E49074
:10076100002BF0900028E0FBA3E0FAA3E0F91207C8
:10077100D390002BE004F0E0C3940540E6900045DF
:03078100E004F0A1
:010784002252
:100631009000297402F0A3EFF0A3EDF0900045E0E3
:1006410090002CF09000287404F0900028E0FFC383
:100651009410501474292FF582E43400F583E4F0EA
:10066100900028E004F080E2D2A4E4900028F07B1E
:10067100017A0079291207D3900028E004F0E0C341
:0A068100940540EB900045E004F002
:01068B00224C
:10068C0090005A7404F0E4A3F0A3F0900045E090BD
:10069C00005DF09000597404F0900059E0FFC39491
:1006AC00105014745A2FF582E43400F583E4F09062
:1006BC000059E004F080E2D2A4E4900059F07B01F0
:1006CC007A00795A1207D3900059E004F0E0C394F1
:0906DC000540EB900045E004F03C
:0106E50022F2
:0B042A0090002CEBF0A3EAF0A3E9F037
:10043500E4900042F0A3F0C2A4D2A520A516900036
:1004450042E0C39432500D7F0A12099F900042E0AA
:1004550004F080E720A5037F0022C2A37F241209B0
:10046500F4E4900042F0E4FF1209F4900042E02425
:1004750032F582E43400F583EFF0900042E004F0B9
:10048500E0C3941040E0D2A3C2A5900032E0B403CB
:1004950029A3E0FF90002CE0FBA3E0FAA3E0F9EF2D
:1004A50012013F900034E0FF90002FE0FBA3E0FA3B
:0C04B500A3E0F9EF12013F7F01227F005D
:0104C1002218
:0808AB00900028EFF0A3EDF02E
:1008B30090002F7401F0A37400F0A3742BF07B015C
:1008C3007A00792A12042A90002AE0FE900028E098
:1008D300B5060C90002BE0FE900029E06E6002E468
:0908E300FFEF60037F01227F009A
:0108EC0022E9
:0E01CB0090006AEBF0A3EAF0A3E9F0A3EDF0D8
:1001D900E490006FF0A3F090006DE0FF90006FE0F5
:1001E900C39F40030202C6A3E0C394324003020244
:0101F900C63F
:1001FA0090002F7401F0A37400F0A37473F07B01D4
:10020A007A00797212042A90006EEFF0E49000717D
:10021A00F090006FE0FF900071E0FED39F50509085
:10022A00006AE0FBA3E0FAA3E0F975F002EEA4F598
:10023A008285F083120112FF900072E0B5072890C0
:10024A000071E075F002A4FF90006AA3A3E02FF901
:10025A00EA35F0FA900001120112FF900073E0B53E
:10026A000705E490006EF0900071E004F080A2901F
:10027A00006EE0603E900072E0FF90006AE0FBA32F
:10028A00E0FAA3E0F990006FE0FE75F002A4F582AF
:10029A0085F083EF120151900073E0FDEE75F002D4
:1002AA00A429F9EA35F0FA900001ED120151900003
:0902BA006F8003900070E004F075
:0802C3000201E090006FE0FF72
:0102CB002210
:1002CC00E4900086F0A3F07BFF7A0679E61208ED45
:1002DC007BFF7A0779041208ED9000867401F09088
:1002EC0000877403F0900087E0FDC394085072906F
:1002FC000086E0FF120631E4900084F0A3F0900039
:10030C0085E07021900084E0C3940A501890008618
:10031C00E0FFA3E0FD1208AB900085EFF0900084A5
:10032C00E004F080D9900086E0FF12054E7F201289
:10033C000A01900087E0FF12054E7F20120A0190FF
:10034C000085E07BFF60067A07792380047A0779C1
:10035C002C1208ED7F0A1209BA900087E004F08095
:10036C0084900086E004F0E0C3940550030202EB95
:01037C00225E
:10086700758DE6438E10758780759852758920D2ED
:100877008E439506439402E4F5B475B302C2A37F91
:10088700191209F4E4FF1209F4EF4404900028F068
:10089700D2A3C2A37F091209F4900028E0FF12092E
:0308A700F4D2A3E5
:0108AA00222B
:080A01003099FDC2998F992282
:1008ED00900028EBF0A3EAF0A3E9F0900028E0FBDC
:1008FD00A3E0FAA3E0F91200F96017900028A3E431
:10090D0075F001120189A9F0FA1200F9FF120A011E
:03091D0080D9225C
:10054E007D02ED1460071470067E6480027E0AEF51
:10055E00C39E401BEF8EF0842430FC74882DF582F0
:10056E00E43400F583ECF0EF8EF084AFF0800D7480
:10057E00882DF582E43400F5837430F0DDC4EF2469
:10058E0030900088F090008AE0C3943140047D02E0
:10059E00800B900089E0C3943140027D01EDC3943D
:1005AE00004017ED9403501274882DF582E4340048
:0A05BE00F583E0FF120A011D80E33F
:0105C8002210
:1009E3003098FDC298E59912013F1200F9FF020AFF
:0109F3000102
:10078500900028EBF0A3EAF0A3E9F080229000287E
:10079500E0FBA3E0FAA3E0F91200F9FF640D601F86
:1007A500EF640A601A900029E475F0011201739054
:1007B5000028E0FBA3E0FAA3E0F91209E380CE905C
:0E07C5000028E0FBA3E0FAA3E0F9E402013F04
:100968007401A807088002C333D8FCFEF4FC529532
:0C097800EDB40104EE429422EC529422F3
:05099F00900044EFF0A0
:1009A400900044E0FF14F0EF600BE4FEEEC39423E8
:0509B40050EE0E80F77B
:0109B900221B
:1009BA0090008BEFF090008BE0FF14F0EF60077F60
:0709CA003212099F80EF22A9
:0D09F4005391DF8FB2E59130E5FBAFB222E9
:030000000204C235
:0C04C200787FE4F6D8FD7581070205097B
:10000300E709F608DFFA8046E709F208DFFA803EDF
:1000130088828C83E709F0A3DFFA8032E309F608CC
:10002300DFFA8078E309F208DFFA807088828C8334
:10003300E309F0A3DFFA806489828A83E0A3F608E8
:10004300DFFA805889828A83E0A3F208DFFA804CC2
:1000530080D280FA80C680D4806980F28033801099
:1000630080A680EA809A80A880DA80E280CA803302
:1000730089828A83ECFAE493A3C8C582C8CCC5837A
:10008300CCF0A3C8C582C8CCC583CCDFE9DEE7804A
:100093000D89828A83E493A3F608DFF9ECFAA9F0C9
:1000A300EDFB2289828A83ECFAE0A3C8C582C8CC1F
:1000B300C583CCF0A3C8C582C8CCC583CCDFEADE38
:1000C300E880DB89828A83E493A3F208DFF980CC9A
:1000D30088F0EF60010E4E60C388F0ED2402B40493
:1000E3000050B9F582EB2402B4040050AF2323453A
:0600F3008223900053730C
:1000F900BB010689828A83E0225002E722BBFE0205
:09010900E32289828A83E4932237
:10011200BB010CE58229F582E5833AF583E02250A2
:1001220006E92582F8E622BBFE06E92582F8E222EC
:0D013200E58229F582E5833AF583E4932206
:10013F00BB010689828A83F0225002F722BBFE019F
:02014F00F32299
:10015100F8BB010DE58229F582E5833AF583E8F0E4
:10016100225006E92582C8F622BBFE05E92582C890
:02017100F22278
:10017300C5F0F8A3E028F0C5F0F8E5821582700217
:060183001583E038F022B4
:10018900A3F8E0C5F025F0F0E58215827002158329
:06019900E0C838F0E82286
:10019F00EF4E6012EF60010EEDBB010B89828A8377
:1001AF00F0A3DFFCDEFA2289F05007F709DFFCA984
:0C01BF00F022BBFEFCF309DFFCA9F022DB
:1004CE0002037DE493A3F8E493A34003F68001F2C4
:1004DE0008DFF48029E493A3F85407240CC8C3332F
:1004EE00C4540F4420C8834004F456800146F6DFFE
:1004FE00E4800B010204081020408090094AE47E3B
:10050E00019360BCA3FF543F30E509541FFEE493F2
:10051E00A360010ECF54C025E060A840B8E493A3B9
:10052E00FAE493A3F8E493A3C8C582C8CAC583CAE4
:10053E00F0A3C8C582C8CAC583CADFE9DEE780BE9C
:01096700008F
:00000001FF
