:100341000D0A4D6173746572205374617274656432
:100351002E2E000D0A00312E2054726166666963EB
:1003610020496E666F200D0A00322E2048656172A9
:100371007462656174200D0A00332E204865617234
:1003810074626561742066726F6D20616C6C2862A5
:10039100726F61646361737429200D0A00342E2029
:1003A1004865617274626561742066726F6D206167
:1003B1006C6C286C6F6F70290D0A0053656C656356
:1003C100743A20003A3A3A3A53656E6420547261A5
:1003D1006666696320496E666F3A3A3A3A3A0D0A9F
:1003E1000054696D656F75740D0A004E6F20686564
:1003F10061727462656174207265636569766564B2
:100401002E2E0D0A00526563656976656420686564
:10041100617274626561742066726F6D2E2E0D0AB1
:1004210000536C617665205B6769645D205B75696B
:10043100645D3A200D0A0054726166666963206941
:100441006E666F20666F722067726F757020003A5A
:100451002000506C6561736520656E74657220675C
:10046100726F757049443A2000506C656173652064
:10047100656E74657220756E6971756549443A20BF
:10048100000000000000000000000000000000006B
:0F0491000000000000000000000000000000005C
:1001C80078087C007D007BFF7A0479827E007F12AC
:1001D8001200D3E4F51AF51B1208A61207A57BFF37
:1001E8007A0379410202DFE4F51C7BFF7A03795434
:1001F800120A597BFF7A037957120A597BFF7A034F
:10020800796A120A597BFF7A03797A120A597BFFB5
:100218007A03799E120A597BFF7A0379BC120A592C
:100228007B007A00791C120AF37BFF7A0379541257
:100238000A59E51CB4311D7BFF7A0379C5120A59A6
:100248007B007A00791D1206597B007A00791D120D
:1002580009C38093E51C64327046F51DF51EF51F31
:10026800F520F530753100753220FB7A00791F12C0
:100278000804AD20AF1F1209F8E51E7014E51DC370
:100288009405500DAD20AF1F120A2D8F1E051D803D
:10029800E8E51E60030201EF7BFF7A0379E280370D
:1002A800E51C64336003020332781D7C00FD7BFF8C
:1002B8007A047994FE7F0C1200D3E4F52A12098D92
:1002C8007B007A00791D7D061204A08F2AE52A702A
:1002D8000C7BFF7A0379EC120A590201EF7BFF7A53
:1002E800047906120A597BFF7A047922120A59E422
:1002F800F529E529C3952A40030201EFE52925E000
:10030800241DF8E62430FF120B227F20120B22E571
:100318002925E0241EF8E62430FF120B227BFF7A01
:10032800037954120A59052980C8E51C643460030E
:090338000201EF1205D90201EFE8
:100659008B2D8A2E892FE4F531F532F530AB2DAA91
:100669002EA92F85308275830074041201A60530E6
:10067900E530B410E87530037BFF7A047938120A43
:1006890059E530242FFF120B227BFF7A047950128F
:100699000A59AB2D7E00E52F2530F9EE352EFA12D9
:1006A9000AF37BFF7A037954120A59AB2DAA2EA9B2
:1006B9002F85308275830074D01201610530E530D1
:0E06C900D3940540B37BFF7A037954020A599B
:100804008B2D8A2E892F7BFF7A047953120A59ABD8
:100814002DAA2EA92F120AF3AB2DAA2EA92F74D01C
:1008240012013F7BFF7A037954120A597BFF7A0441
:10083400796A120A59AB30AA31A932120AF3AB30E1
:10084400AA31A93274D012013F7BFF7A0379540292
:020854000A593F
:100A7E001252000000000000000000000000000004
:0A0A8E0000000000015000015100BB
:100AB400E564B5670DE565B56808E566B569037F66
:050AC40001227F002269
:100AC900E56D120194900001E56E1201A6900002F5
:050AD900E56F0201A61B
:1007A500E4F5B475B302C2A37F19120B15E4FF1269
:1007B5000B15EF4404F52ED2A3C2A37F09120B1526
:1007C500AF2E120B15D2A3C2A37F03120B157F10F8
:1007D500120B157F10120B15D2A3C2A37F11120B9A
:1007E50015E4FF120B15EF54F1F52DD2A3C2A37F2B
:0E07F50001120B15E52D440CFF120B15D2A3BB
:0108030022D2
:0608E5008B428A438944A6
:1008EB00C2A37F20120B15E4F545AB42AA43A944E2
:1008FB00854582758300120112FF120B150545E524
:10090B0045C3941040E4D2A3D2A57F10120ADEC2D5
:01091B00A536
:01091C0022B8
:06091D008B708A718972E3
:10092300D2A530A5FDC2A37F24120B15E4F573E411
:10093300FF120B15AB70AA71A972857382758300C0
:10094300EF1201A60573E573C3941040E2D2A3C26C
:01095300A5FE
:010954002280
:100856005363616E6E696E6720666F7220736C619A
:1008660076657320616C6976652E2E0D0A00466FDB
:10087600756E642074686520666F6C6C6F77696E40
:100886006720736C617665733A200D0A00416C69C6
:100896007665210D0A0054696D656F75740D0A0041
:0609C3008B2D8A2E892F06
:1009C9007401120194AB2DAA2EA92FF5827583000B
:1009D900E5501201A6D2A4E4F530AB2DAA2EA92F19
:0E09E9001208E50530E530C3940540EE0550D8
:0109F70022DD
:1009F8007532028F338D3485503575310474322544
:100A080031F8E4F60531E531B410F2D2A4E4F53159
:100A18007B007A0079321208E50531E531C3940587
:040A280040EE055047
:010A2C0022A7
:10098D00752E04E4F52FF530855031752D04742E38
:10099D00252DF8E4F6052DE52DB410F2D2A4E4F5DD
:1009AD002D7B007A00792E1208E5052DE52DC394D7
:0509BD000540EE0550AD
:0109C2002212
:0606D7008B378A388939D7
:1006DD00E4F54DF54EC2A4D2A520A510E54DC39469
:1006ED003250097F0A120ADE054D80ED20A5037FE9
:1006FD000022C2A37F24120B15E4F54DE4FF120B6B
:10070D0015743D254DF8A607054DE54DC3941040D4
:10071D00EBD2A3C2A5E53DB40319AB37AA38A9396D
:10072D00E53E120194AB3AAA3BA93CE53F12019478
:05073D007F01227F0096
:010742002294
:040A2D008F318D3246
:100A3100753A00753B00753C347B007A00793312BE
:100A410006D7E531B53306E53265346002E4FFEFE0
:070A510060037F01227F001A
:010A5800227B
:0804A0008B2D8A2E892F8D306F
:1004A800E4F532F533E532C39530400302054AE5F9
:0904B80033C39432400302054AEB
:1004C100753A00753B00753C367B007A0079351230
:1004D10006D78F31E4F534E534D395325033AB2D63
:1004E100AA2EA92F75F002E534A4F58285F08312B6
:1004F1000112B53518E53475F002A429F9EA35F091
:10050100FA900001120112B53603E4F53105348089
:10051100C6E531602FAB2DAA2EA92F75F002E53269
:10052100A4F58285F083E5351201A6E53275F00266
:10053100A429F9EA35F0FA900001E5361201A60581
:06054100320204AD053397
:050547000204ADAF321B
:01054C00228C
:1005D900E4F52FF5307BFF7A087956120A597BFF2B
:1005E9007A087974120A59752F01753003AD30AF45
:1005F9002F1209F8E4F52DF52EE52E7014E52DC31B
:10060900940A500DAD30AF2F120A2D8F2E052D8073
:10061900E8AF2F1207437F20120B22AF3012074396
:100629007F20120B22E52E7BFF60067A08799380E2
:10063900047A08799C120A597F0A120B040530E5DD
:0F06490030C3940840A7052FE52FC39405409BAD
:01065800227F
:1008A600758DE6438E10758780759852758920D2AE
:1008B6008E439506439402E4F5B475B302C2A37F52
:1008C60019120B15E4FF120B15EF4404F52DD2A3F4
:0E08D600C2A37F09120B15AF2D120B15D2A372
:0108E40022F1
:080B22003099FDC2998F992260
:100A59008B338A348935AB33AA34A9351200F9604E
:100A6900130535E5357002053414F91200F9FF1242
:050A79000B2280E222C7
:100743007D02ED1460071470067E6480027E0AEF5A
:10075300C39E4015EF8EF0842430FC74312DF8A62F
:1007630004EF8EF084AFF0800674312DF87630DD1F
:10077300D1EF2430F531E533C3943140047D028059
:1007830009E532C3943140027D01EDC39400401169
:10079300ED9403500C74312DF8E6FF120B221D80EB
:0107A300E96C
:0107A4002232
:100AF3003098FDC298E5991201941200F9FF020B98
:010B030022CF
:100955008B748A7589768021AB74AA75A976120085
:10096500F9FF640D6018EF640A601374012576F5CC
:1009750076E43575F575FAA976120AF380DAAB7463
:08098500AA75A976E4020194B1
:100A99007401A807088002C333D8FCFEF4FC529500
:0B0AA900BD0104EE429422EC529422A6
:020ADE008F4F38
:100AE000AF4F154FEF600BE4FEEEC3942350F10EB1
:020AF00080F78D
:010AF20022E1
:100B04008F31AF311531EF60077F32120ADE80F288
:010B140022BE
:0D0B15005391DF8FB2E59130E5FBAFB222C6
:0300000002054DA9
:0C054D00787FE4F6D8FD758176020594F5
:10000300E709F608DFFA8046E709F208DFFA803EDF
:1000130088828C83E709F0A3DFFA8032E309F608CC
:10002300DFFA8078E309F208DFFA807088828C8334
:10003300E309F0A3DFFA806489828A83E0A3F608E8
:10004300DFFA805889828A83E0A3F208DFFA804CC2
:1000530080D280FA80C680D4806980F28033801099
:1000630080A680EA809A80A880DA80E280CA803302
:1000730089828A83ECFAE493A3C8C582C8CCC5837A
:10008300CCF0A3C8C582C8CCC583CCDFE9DEE7804A
:100093000D89828A83E493A3F608DFF9ECFAA9F0C9
:1000A300EDFB2289828A83ECFAE0A3C8C582C8CC1F
:1000B300C583CCF0A3C8C582C8CCC583CCDFEADE38
:1000C300E880DB89828A83E493A3F208DFF980CC9A
:1000D30088F0EF60010E4E60C388F0ED2402B40493
:1000E3000050B9F582EB2402B4040050AF2323453A
:0600F3008223900053730C
:1000F900BB010689828A83E0225002E722BBFE0205
:09010900E32289828A83E4932237
:10011200BB010CE58229F582E5833AF583E02250A2
:1001220006E92582F8E622BBFE06E92582F8E222EC
:0D013200E58229F582E5833AF583E4932206
:10013F00BB010989828A83F8E028F022500327F750
:10014F0022BBFE05F8E328F3228A838982F8E49321
:02015F00282254
:10016100BB010FF8E58229F582E5833AF583E028A2
:10017100F0225009C58229F8E58226F622BBFE0944
:10018100C58229F8E22582F222F8EA2583F583E97E
:030191009328228E
:10019400BB010689828A83F0225002F722BBFE014A
:0201A400F32244
:1001A600F8BB010DE58229F582E5833AF583E8F08F
:1001B600225006E92582C8F622BBFE05E92582C83B
:0201C600F22223
:100559000201C8E493A3F8E493A34003F68001F2EF
:1005690008DFF48029E493A3F85407240CC8C333A3
:10057900C4540F4420C8834004F456800146F6DF72
:10058900E4800B0102040810204080900A7EE47E7A
:10059900019360BCA3FF543F30E509541FFEE49367
:1005A900A360010ECF54C025E060A840B8E493A32E
:1005B900FAE493A3F8E493A3C8C582C8CAC583CA59
:1005C900F0A3C8C582C8CAC583CADFE9DEE780BE11
:010A9800005D
:00000001FF
