:100339000D0A506C656173652070726573732031A5
:100349002853656E64205472616666696320496E3C
:10035900666F29206F722032285265717565737432
:1003690020486561727462656174293A20000D0A3A
:100379003A3A3A3A53656E64205472616666696323
:1003890020496E666F3A3A3A3A3A000D0A54726158
:100399006666696320696E666F20666F7220677290
:1003A9006F757020003A20000D0A54726166666903
:1003B9006320696E666F207472616E736D697474FF
:1003C90065642E000D0A506C6561736520656E7455
:1003D90065722067726F757049443A20000D0A50A2
:1003E9006C6561736520656E74657220756E6971DF
:0703F900756549443A20003C
:10000300E4900000F0A3F0A3F0900005F07D017FE1
:1000130003120CB17D017F05120CB1120AB0120755
:10002300F47F02120D39900002E0700F7BFF7A0318
:100033007939120C8C9000027401F03083030200B2
:01004300D0EC
:10004400E4900002F07BFF7A037977120C8C900025
:10005400067401F0900003F07BFF7A037994120C8C
:100064008C900003E02430FF120D697BFF7A037942
:10007400AE120C8C900003E02406F9E43400FA7B01
:1000840001120D0A900003E02406F582E43400F521
:1000940083E024D0F0900003E004F0E0C3940E4029
:1000A400B7E4900015F090000304F07B017A007926
:1000B400061206D9900003E004F0E0C3940A40EB72
:0900C4007BFF7A0379B1120C8C68
:1000CD00020029308503020029E4900002F07BFF35
:1000DD007A0379CD120C8C7B017A007901120D0A0D
:1000ED00900001E024D0F07BFF7A0379E6120C8CAE
:1000FD007B017A007900120D0A900000E024D0F007
:10010D00E4900003F0A3F0A3F0900005E06003027B
:10011D000029900003E0D3941440030200299000BD
:10012D0001E0FF900000E0FD120A62900005E07012
:10013D0023900004E0D39414501A900001E0FF9036
:10014D000000E0FD1205E9900005EFF0900004E0DD
:0C015D0004F080D7900003E004F080ADB7
:100559000D0A4865617274626561742053656E7431
:1005690021000D0A54696D656F75742E2E000D0AF0
:100579004865617274626561742066726F6D20737B
:100589006C617665207265636569766564212121F0
:1005990021000D0A4E6F742068656172746265618D
:1005A900742066726F6D2072657175657374656408
:1005B90020736C6176652E000D0A556E6964656E4F
:1005C9007469666965642067726F757049442E2E77
:1005D900000D0A48422052656C617965642E2E002F
:1007F400E4F5B475B302C2A37F19120D2CE4FF1201
:100804000D2CEF4404F509D2A3C2A37F09120D2CC9
:10081400AF09120D2CD2A3C2A37F03120D2C7F109B
:10082400120D2C7F10120D2CD2A3C2A37F11120D16
:100834002CE4FF120D2CEF54F1F508D2A3C2A37FD0
:0E08440001120D2CE508440CFF120D2CD2A35E
:010852002283
:030D7600C2A422F2
:030D7900D2A422DF
:0606D3007B007A00792291
:0606D9008B088A09890A62
:1006DF00C2A37F14120D2CE4FF120D2CEF543FF523
:1006EF000CD2A3C2A37F20120D2CE4F50BE50BC394
:1006FF00950C5025AB08AA09A90A120400FF601037
:10070F00120D2C7401250AF50AE43509F509800547
:10071F00E4FF120D2C050B80D4D2A3D2A57F1412A7
:04072F000CE2C2A571
:0107330022A3
:060A10008B3E8A3F894085
:100A1600D2A530A5FDC2A37F13120D2CE4FF120D43
:100A26002CEF543FF542D2A3C2A37F24120D2CE42F
:100A3600F541E541C39542501EE4FF120D2CAB3E35
:100A4600AA3FA940EF12044674012540F540E4355B
:0B0A56003FF53F054180DBD2A3C2A5A5
:010A61002272
:020BBD008F6344
:100BBF00C2A37F11120D2CE4FF120D2CEF54DFF5A1
:100BCF0064D2A3C2A37F01120D2CE563C43354E09A
:080BDF004564FF120D2CD2A3A6
:010BE70022EB
:100CCC008F71C2A37F03120D2CAF71120D2CAF715B
:060CDC00120D2CD2A32230
:020BE8008F6517
:100BEA00C2A37F11120D2CE4FF120D2CEF54F3F562
:100BFA0066D2A3C2A37F01120D2CE56525E025E08C
:080C0A004566FF120D2CD2A378
:010C120022BF
:020C3D008F67BF
:100C3F00C2A37F11120D2CE4FF120D2CEF54FDF502
:100C4F0068D2A3C2A37F01120D2CE56725E045688A
:060C5F00FF120D2CD2A3D0
:010C6500226C
:020C13008F69E7
:100C1500C2A37F11120D2CE4FF120D2CEF54EFF53A
:100C25006AD2A3C2A37F01120D2CE569C454F04515
:070C35006AFF120D2CD2A38F
:010C3C002295
:0808B2008B328A3389348D3545
:1008BA00C2A37F12120D2CE4FF120D2CEF54F8F58F
:1008CA0036D2A3C2A37F02120D2CE5364535FF129C
:1008DA000D2CD2A3C2A37F05120D2CE4F537E53700
:1008EA00C39535501CAB32AA33A934120400FF1247
:1008FA000D2C74012534F534E43533F5330537808E
:03090A00DDD2A398
:01090D0022C7
:080853008B388A39893A8D3B8C
:10085B00C2A37F12120D2CE4FF120D2CEF54F8F5EE
:10086B003CD2A3C2A37F02120D2CE53BC454F0452E
:10087B003CFF120D2CD2A3C2A37F22120D2CE4F548
:10088B003DE53DC3953B501CAB38AA39A93A120440
:10089B0000FF120D2C7401253AF53AE43539F53980
:0608AB00053D80DDD2A333
:0108B1002224
:0C0D4600EF7003C2A522BF0102D2A5225B
:020B64008F6B95
:100B6600C2A37F19120D2CE4FF120D2CEF547FF552
:100B76006CD2A3C2A37F09120D2CE56BC4333333A9
:0A0B86005480456CFF120D2CD2A321
:010B90002242
:020B91008F6D66
:100B9300C2A37F19120D2CE4FF120D2CEF547FF525
:100BA3006ED2A3C2A37F09120D2CE56DC433335457
:090BB300C0456EFF120D2CD2A307
:010BBC002216
:060734008B438A44894555
:10073A00C2A37F14120D2CE4FF120D2CEF543FF5C7
:10074A0047D2A3C2A37F20120D2C7F01120D2C7554
:10075A004601E546C395475025AB43AA44A945122D
:10076A000400FF6010120D2C74012545F545E4358F
:10077A0044F5448005E4FF120D2C054680D4D2A32B
:09078A00D2A57F14120CE2C2A5F5
:010793002243
:0B0D5E00ED29F9E43AFA120400FF222C
:040A62008F088D0963
:100A6600D2A4C2A37F14120D2CE4FF120D2CEF5456
:100A76003FF50BD2A3C2A37F20120D2C7F02120DCD
:100A86002CAF08120D2CAF09120D2C750A03E50ABE
:100A9600C3950B5009E4FF120D2C050A80F0D2A372
:090AA600D2A57F14120CE2C2A5D6
:010AAF002224
:040966008F528D53CC
:10096A00D2A4C2A37F14120D2CE4FF120D2CEF5453
:10097A003FF555D2A3C2A37F20120D2C7F03120D7F
:10098A002CAF52120D2CAF53120D2C755403E55493
:10099A00C395555009E4FF120D2C055480F0D2A3DB
:1009AA00D2A57F14120CE2C2A57BFF7A05795902FF
:0209BA000C8CA3
:0405E9008F088D09E1
:1005ED00C2A4D2A5E4F51A20A50BE51AD394375071
:1005FD0004051A80F220A5087BFF7A05796B8059D6
:10060D00C2A37F13120D2CE4FF120D2CEF543FF5F6
:10061D001BD2A3C2A37F24120D2CE4F51AE51AC335
:10062D00951B5010E4FF120D2C740A251AF8A6071D
:10063D00051A80E9D2A3C2A5E50AB40316E50BB5E8
:10064D000811E50CB5090C7BFF7A057977120C8C36
:0E065D007F01227BFF7A05799B120C8C7F00B7
:01066B00226C
:06066C008B488A49894A0F
:10067200C2A4D2A530A5FD20A50EC2A57BFF7A0596
:10068200796B120C8C7F0122C2A37F13120D2CE412
:10069200FF120D2CEF543FF54CD2A3C2A37F2412BC
:1006A2000D2CE4F54BE54BC3954C501EE4FF120DA7
:1006B2002CAB48AA49A94AEF1204467401254AF50F
:1006C2004AE43549F549054B80DBD2A3C2A57F0038
:0106D2002205
:04026C008F1F8D2033
:100270007B007A00792212066CEF6003020338E5F6
:1002800022640170477422251FF8E624FE600F14D3
:10029000601424027018C280D284D2868019D28061
:1002A000C284D2868011D280D284C28680097BFF2C
:1002B0007A0579C1120C8CD2A4E4F5211206D3057B
:1002C00021E521C3940A40F47F0A8069E522640293
:1002D000703AE523B51F19E524B52014E4F521ADE6
:1002E00020AF1F1209660521E521C3946440F02266
:1002F000E523D3951F5041D2A4E4F5211206D3057E
:1003000021E521C3940A40F47F058029E522640396
:100310007026E523D3951F501FD2A4E4F5211206C1
:10032000D30521E521C3940A40F47BFF7A0579DAED
:08033000120C8C7F05120D1B5D
:0103380022A2
:060794008B4D8A4E894FD7
:10079A007F01120BBDC2A37F14120D2CE4FF120DB0
:1007AA002CEF543FF551D2A3C2A37F20120D2CE4A3
:1007BA00F550E550C395515025AB4DAA4EA94F129D
:1007CA000400FF6010120D2C7401254FF54FE4351B
:1007DA004EF54E8005E4FF120D2C055080D4D2A3AD
:0907EA00D2A57FC8120CE2C2A5E1
:0107F30022E3
:100CF7000D0A6572726F722E000D0A446F6E6521C0
:030D07000D0A00D2
:100AB000758DE6438E10758780759852758920D2A2
:100AC0008E439506539402E4F5B475B302C2A37F36
:100AD00019120D2CE4FF120D2CEF4404F508D2A3DB
:0E0AE000C2A37F09120D2CAF08120D2CD2A359
:010AEE0022E5
:080D69003099FDC2998F992217
:100C8C008B1C8A1D891EAB1CAA1DA91E1204006098
:100C9C0013051EE51E7002051D14F9120400FF1247
:050CAC000D6980E22249
:100D0A003098FDC298E599120446120400FF020DBC
:010D1A00696F
:100B2C008B5A8A5B895C8021AB5AAA5BA95C120444
:100B3C0000FF640D6018EF640A60137401255CF506
:100B4C005CE4355BF55BFAA95C120D0A80DAAB5AF2
:080B5C00AA5BA95CE402044657
:04016900AB07AA0630
:10016D00C3EB9410EA9427401B7C277D1012046A80
:10017D008F567E007C277D10120458C3EB9FFBEA3F
:10018D009EFA8003E4F556C3EB94E8EA9403401F0E
:10019D007C037DE8AF03AE0212046A8F577E007CAC
:1001AD00037DE8120458C3EB9FFBEA9EFA8003E43B
:1001BD00F557C3EB9464EA9400401D7C007D64AF59
:1001CD0003AE0212046A8F58EF75F064A4FFC3EBFF
:1001DD009FFBEA95F0FA8003E4F558C3EB940AEA25
:1001ED009400401D7C007D0AAF03AE0212046A8F9D
:1001FD0059EF75F00AA4FFC3EB9FFBEA95F0FA8067
:10020D0003E4F559AF03AE0774302556F556743037
:10021D002557F55774302558F55874302559F5592B
:10022D0074302EFEE556C394314007AF56120D695A
:10023D008007E557C394314007AF57120D6980070A
:10024D00E558C394314007AF58120D698007E55941
:0F025D00C394314005AF59120D69AF06020D6908
:1009BC00120400FFC394304009EFD394395003EF75
:1009CC008023120400FF6037C3943040F5EFD394BA
:1009DC003950EFAE6FAF707C007D0A1204588E6FE9
:1009EC008F7012040024D0FFE434FFFEEF2570F565
:1009FC0070EE356FF56F740129F9E43AFA80C3AEE5
:030A0C006FAF7059
:010A0F0022C4
:06090E008B5D8A5E895F2B
:10091400E4FEEEC39D5041AB5DAA5EA95F120D0AD1
:10092400AB5DAA5EA95F120400FFC394304014EFCC
:10093400D39439500E7401255FF55FE4355EF55E9E
:100944000E80CFEFB40D06E4120446800B7BFF7AD1
:100954000C79F7120C8C80BAAB5DAA5EA95FE40235
:02096400044647
:100C6600E4F572FB800EE572640D6011E572640AAC
:100C7600600B7B007A007972120D0A80E97BFF7A9D
:060C86000D7900020C8C48
:100CB1007401A807088002C333D8FCFEF4FC5295E6
:0B0CC100BD0104EE429422EC5294228C
:020CE2008F0D74
:100CE400AF0D150DEF600BE4FEEEC3942350F10E2F
:020CF40080F787
:010CF60022DB
:100D1B008F73AF731573EF60077F32120CE280F2A3
:010D2B0022A5
:0D0D2C005391DF8FB2E59130E5FBAFB222AD
:0604BF008B608A61896276
:1004C500E4FFFE9000011204197810C333CE33CE39
:1004D500D8F9EE3395E0FDE4FFFEFCC004C005C08D
:1004E50006C007AB60AA61A9621204007818C3337D
:1004F500CE33CED8F9EE3395E0FCD003D002D0014F
:10050500D000EBFFEAFEE9FDEC48FCC004C005C0E5
:1005150006C007AB60AA61A962900002120419FE29
:10052500D003D002D001D000EBFFEA4EFEE9FDE892
:10053500FCC004C005C006C007AB60AA61A96290F3
:100545000003120419FFD003D002D001D000EB4FF5
:03055500FFEAFEBC
:010558002280
:100AEF00AD07AC06ED7818CEC313CE13D8F91204A8
:100AFF0046740129F9E43AFAEDAE047810CEC31327
:100B0F00CE13D8F9120446740129F9E43AFAEC121B
:0D0B1F000446740129F9E43AFAED02044697
:0C0D3900E58954F0FEEF540F42068E894D
:010D4500228B
:050D71008F8C8D8A2229
:03000000020D529C
:0C0D5200787FE4F6D8FD75817302000381
:10040000BB010689828A83E0225002E722BBFE02FA
:09041000E32289828A83E493222D
:10041900BB010CE58229F582E5833AF583E0225098
:1004290006E92582F8E622BBFE06E92582F8E222E2
:0D043900E58229F582E5833AF583E49322FC
:10044600BB010689828A83F0225002F722BBFE0195
:02045600F3228F
:10045800EF8DF0A4A8F0CF8CF0A428CE8DF0A42EB8
:02046800FE2272
:10046A00BC000BBE0029EF8DF084FFADF022E4CC76
:10047A00F875F008EF2FFFEE33FEEC33FCEE9DEC3F
:10048A00984005FCEE9DFE0FD5F0E9E4CEFD22ED85
:10049A00F8F5F0EE8420D21CFEADF075F008EF2FCF
:1004AA00FFED33FD4007985006D5F0F222C398FDC0
:0504BA000FD5F0EA225D
:00000001FF
