:03000000020935BD
:0C093500787FE4F6D8FD758107020941C7
:10080000EFB4090040030208C3900810F8282873C9
:1008100002082B02083C02084D02085E02086F0223
:1008200008800208910208A20208B35395FEED6405
:10083000014C7004439401225394FE225395FDED24
:1008400064014C7004439402225394FD225395FB9F
:10085000ED64014C7004439404225394FB2253959D
:10086000F7ED64014C7004439408225394F722532B
:1008700095EFED64014C7004439410225394EF22E1
:100880005395DFED64014C7004439420225394DFB0
:10089000225395BFED64014C70044394402253945D
:1008A000BF2253957FED64014C7004439480225322
:1008B000947F22E4F595ED64014C70047594FF2259
:0408C000E4F59422A5
:0D0928005391DF8FB2E59130E5FBAFB222B5
:1008C400758DE6438E10758780759852758920D290
:1008D4008E439506539402E4F5B475B302C2A37F24
:1008E40019120928E4FF120928EF4404FED2A3C216
:0D08F400A37F09120928AF06120928D2A31C
:0109010022D3
:0A0941001208C4B28412091580F9EF
:10090200758901E4F58A758C35D28C308DFDC28CE7
:03091200C28D2271
:10091500758901758AFD758C4BD28C308DFDD28C15
:03092500C28D225E
:00000001FF
