:03000000020B0AE6
:0C0B0A00787FE4F6D8FD75810E020A1E0B
:100AA3000D0A000D0A200D0A4E6577205472616EFF
:0A0AB300736D697373696F6E3A008A
:10080000EFB4090040030208C3900810F8282873C9
:1008100002082B02083C02084D02085E02086F0223
:1008200008800208910208A20208B35395FEED6405
:10083000014C7004439401225394FE225395FDED24
:1008400064014C7004439402225394FD225395FB9F
:10085000ED64014C7004439404225394FB2253959D
:10086000F7ED64014C7004439408225394F722532B
:1008700095EFED64014C7004439410225394EF22E1
:100880005395DFED64014C7004439420225394DFB0
:10089000225395BFED64014C70044394402253945D
:1008A000BF2253957FED64014C7004439480225322
:1008B000947F22E4F595ED64014C70047594FF2259
:0408C000E4F59422A5
:020AD3008F0B87
:100AD500AF0B150BEF600BE4FEEEC3942350F10E44
:020AE50080F798
:010AE70022EC
:100AE8008F0AAF0A150AEF60077F32120AD380F225
:010AF80022DB
:090ABD00C2A37F11120AC6E4FF76
:0D0AC6005391DF8FB2E59130E5FBAFB22216
:100A8900AE07C2A37F20120AC6AF06120AC6D2A3B6
:0A0A9900D2A57F01120AD3C2A522E4
:100AF900D2A530A5FDC2A37F24120AC1D2A3C2A5E3
:010B090022C9
:10094F00758DE6438E10758780759852758920D204
:10095F008E439506539402E4F5B475B302C2A37F98
:10096F0019120AC1EF4404FED2A3C2A37F09120ACF
:08097F00C6AF06120AC6D2A39E
:01098700224D
:080B20003099FDC2998F992262
:100A45008B088A09890AAB08AA09A90A1209F36061
:100A550013050AE50A7002050914F91209F3FF12D4
:050A65000B2080E222DD
:0A0B16003098FDC298E599020A0C20
:100988008B0C8A0D890E8021AB0CAA0DA90E1209B9
:10099800F3FF640D6018EF640A60137401250EF507
:1009A8000EE4350DF50DFAA90E120B1680DAAB0C14
:0809B800AA0DA90EE4020A0CCD
:020A6A00AE07D5
:100A6C00120ABDEF54DFFDD2A3C2A37F01120AC646
:0C0A7C00EEC43354E04DFF120AC6D2A3B2
:010A8800224B
:1009C000E4F5B475B302C2A37F03120AC67F011215
:1009D0000AC67F01120AC6D2A3120ABDEF54F1FE65
:1009E000D2A3C2A37F01120AC6EE440CFF120AC6AC
:0209F000D2A390
:0109F20022E2
:0E091300D2A47F2B120A897F0F120AE8C2803D
:10092100750861AF08120A897F0F120AE87509304C
:10093100AF09120A897F0F120AE80509E509D39464
:0E0941003940ED0508E508D3947A40D780D2FE
:1008C400E4FEC2A4120AF9AE07EEC394304006EE69
:1008D400D39439400CEEC394614026EED3947A50FD
:1008E40020C280EEC39461400FEED3947A50097B0A
:1008F400FF7A0A79A3120A45AF06120B20E4FE80A0
:0F090400C3BE2BC07BFF7A0A79A6120A4580B5C5
:100A1E00E4FDFCFF1208000D7F031208007F051293
:100A2E000800D28012094F1209C020830302091355
:070A3E002085031208C42209
:1009F300BB010689828A83E0225002E722BBFE0202
:090A0300E32289828A83E4932234
:100A0C00BB010689828A83F0225002F722BBFE01C9
:020A1C00F322C3
:00000001FF
