:03000000020E00ED
:0C0E0000787FE4F6D8FD758113020D2701
:100B63000D0A446F6E65210D0A000D0A200D0A520D
:100B73006563656976657220737461727465642E4A
:100B8300000D0A000D0A200D0A4E6577205472618C
:100B93006E736D697373696F6E3A000D0A456E6407
:100BA300206F66205472616E736D697373696F6E23
:100BB3002E20526563656976656420002F323030DC
:100BC300207061636B6574732073656E742E20509F
:100BD30061636B6574206C6F73733A20000D0A4573
:0F0BE3006E74657220436F6D6D656E743A2000FD
:100A0D00EFB409004003020AD0900A1DF82828739C
:100A1D00020A38020A49020A5A020A6B020A7C02C9
:100A2D000A8D020A9E020AAF020AC05395FEED64BA
:100A3D00014C7004439401225394FE225395FDED15
:100A4D0064014C7004439402225394FD225395FB90
:100A5D00ED64014C7004439404225394FB2253958E
:100A6D00F7ED64014C7004439408225394F722531C
:100A7D0095EFED64014C7004439410225394EF22D2
:100A8D005395DFED64014C7004439420225394DFA1
:100A9D00225395BFED64014C70044394402253944E
:100AAD00BF2253957FED64014C7004439480225313
:100ABD00947F22E4F595ED64014C70047594FF224A
:040ACD00E4F5942296
:020DDA008F097F
:100DDC00AF091509EF600BE4FEEEC3942350F10E3E
:020DEC0080F78E
:010DEE0022E2
:070DAC00A280B392807F0AD0
:100DB3008F08AF081508EF60077F32120DDA80F253
:010DC300220D
:090DC400C2A37F11120DCDE4FF62
:0D0DCD005391DF8FB2E59130E5FBAFB2220C
:100D9200AE07C2A37F20120DCDAF06120DCDD2A396
:0A0DA200D2A57F01120DDAC2A522CE
:100DEF00D2A530A5FDC2A37F24120DC8D2A3C2A5E0
:010DFF0022D1
:100C5800758DE6438E10758780759852758920D2F8
:100C68008E439506539402E4F5B475B302C2A37F8C
:100C780019120DC8EF4404FED2A3C2A37F09120DB6
:080C8800CDAF06120DCDD2A381
:010C90002241
:080E16003099FDC2998F992269
:100D4E008B0E8A0F8910AB0EAA0FA910120AD16052
:100D5E00130510E5107002050F14F9120AD1FF12D7
:050D6E000E1680E222D8
:0A0E0C003098FDC298E599020AEA49
:100C91008B118A1289138021AB11AA12A913120A8E
:100CA100D1FF640D6018EF640A601374012513F518
:100CB10013E43512F512FAA913120E0C80DAAB11F6
:080CC100AA12A913E4020AEAD9
:04090A00AB07AA0687
:10090E00C3EB9410EA9427401B7C277D10120B0E2C
:10091E008F0D7E007C277D10120AFCC3EB9FFBEA35
:10092E009EFA8003E4F50DC3EB94E8EA9403401FAE
:10093E007C037DE8AF03AE02120B0E8F0E7E007CA1
:10094E00037DE8120AFCC3EB9FFBEA9EFA8003E4E8
:10095E00F50EC3EB9464EA9400401D7C007D64AFF9
:10096E0003AE02120B0E8F0FEF75F064A4FFC3EBF4
:10097E009FFBEA95F0FA8003E4F50FC3EB940AEAC5
:10098E009400401D7C007D0AAF03AE02120B0E8F49
:10099E0010EF75F00AA4FFC3EB9FFBEA95F0FA8007
:1009AE0003E4F510AF03AE077430250DF50D74306A
:1009BE00250EF50E7430250FF50F74302510F51039
:1009CE0074302EFEE50DC394314007AF0D120E1696
:1009DE008007E50EC394314007AF0E120E16800746
:1009EE00E50FC394314007AF0F120E168007E510C6
:0F09FE00C394314005AF10120E16AF06020E164D
:100CFC00E4F50DFB8013E50D640D6016E50D640A3B
:100D0C006010AF0D120E167B007A00790D120E0CCE
:0B0D1C0080E47BFF7A0B7963020D4E30
:020D7300AE07C9
:100D7500120DC4EF54DFFDD2A3C2A37F01120DCD26
:0C0D8500EEC43354E04DFF120DCDD2A39C
:010D9100223F
:100CC900E4F5B475B302C2A37F03120DCD7F0112FF
:100CD9000DCD7F01120DCDD2A3120DC4EF54F1FE3B
:100CE900D2A3C2A37F01120DCDEE440CFF120DCD8C
:020CF900D2A384
:010CFB0022D6
:100BF2007D10D2A42083FDE4FC7F01120D927F05BB
:100C0200120DDAAF05120D92A280B392800CBC6471
:100C1200E87F0A120DB3C2807C61AF04120D9212FA
:100C22000DAC7B31AF03120D92120DAC0BBB3AF43B
:100C32000CBC75E6E4FC7F04120D92A280B3928094
:100C42007F05120DDA0CBC64ED0DEDD39419400250
:060C52007D10D280809E9F
:10080000E4F508F509750A01F50BF50CC2A47BFFA8
:100810007A0B796D120D4E120DEF8F08E508C39417
:10082000304007E508D39439400EE508C394614091
:1008300038E508D3947A5031E50A702DF509C28065
:10084000E508C394614010E508D3947A50097BFF12
:100850007A0B7984120D4E050CE50C7002050BAF76
:1008600008120E16E4F50880AEE50864017037E55D
:10087000097033120DEF8F08E508C39410401AE594
:1008800008D3941950137BFF7A0B7987120D4E749D
:10089000202508F508FF120E16750901E4F50AF582
:1008A0000BF50C020817E50864046003020817E55D
:1008B0000A6003020817F509750A017BFF7A0B79B4
:1008C0009E120D4EAF0CAE0B12090A7BFF7A0B790C
:1008D000BF120D4EC374C8950CFFE4950BFE7C004F
:1008E0007D64120AFC7DC8120B0E8E0B8F0C120950
:1008F0000A7F25120E16E4F50BF50C7BFF7A0B79B7
:0A090000E0120D4E120CFC02081765
:100D2700E4FDFCFF120A0D0D7F03120A0D7F051269
:100D37000A0DD280120C58120CC9208303020BF241
:070D470020850312080022C1
:100AD100BB010689828A83E0225002E722BBFE0223
:090AE100E32289828A83E4932256
:100AEA00BB010689828A83F0225002F722BBFE01EB
:020AFA00F322E5
:100AFC00EF8DF0A4A8F0CF8CF0A428CE8DF0A42E0E
:020B0C00FE22C7
:100B0E00BC000BBE0029EF8DF084FFADF022E4CCCB
:100B1E00F875F008EF2FFFEE33FEEC33FCEE9DEC94
:100B2E00984005FCEE9DFE0FD5F0E9E4CEFD22EDDA
:100B3E00F8F5F0EE8420D21CFEADF075F008EF2F24
:100B4E00FFED33FD4007985006D5F0F222C398FD15
:050B5E000FD5F0EA22B2
:00000001FF
