:03000000020BD11F
:0C0BD100787FE4F6D8FD75810E020AFF63
:100946000D0A446F6E65210D0A000D0A200D0A522C
:100956006563656976657220737461727465642E69
:10096600000D0A000D0A200D0A4E657720547261AB
:100976006E736D697373696F6E3A000D0A456E6426
:10098600206F66205472616E736D697373696F6E42
:100996002E200D0A456E74657220436F6D6D656E6F
:0409A600743A20007F
:10080000EFB4090040030208C3900810F8282873C9
:1008100002082B02083C02084D02085E02086F0223
:1008200008800208910208A20208B35395FEED6405
:10083000014C7004439401225394FE225395FDED24
:1008400064014C7004439402225394FD225395FB9F
:10085000ED64014C7004439404225394FB2253959D
:10086000F7ED64014C7004439408225394F722532B
:1008700095EFED64014C7004439410225394EF22E1
:100880005395DFED64014C7004439420225394DFB0
:10089000225395BFED64014C70044394402253945D
:1008A000BF2253957FED64014C7004439480225322
:1008B000947F22E4F595ED64014C70047594FF2259
:0408C000E4F59422A5
:020B9A008F09C1
:100B9C00AF091509EF600BE4FEEEC3942350F10E80
:020BAC0080F7D0
:010BAE002224
:100BAF008F08AF081508EF60077F32120B9A80F29B
:010BBF002213
:090B8400C2A37F11120B8DE4FFE6
:0D0B8D005391DF8FB2E59130E5FBAFB2224E
:100B6A00AE07C2A37F20120B8DAF06120B8DD2A344
:0A0B7A00D2A57F01120B9AC2A5223A
:100BC000D2A530A5FDC2A37F24120B88D2A3C2A553
:010BD0002202
:100A0500758DE6438E10758780759852758920D24D
:100A15008E439506539402E4F5B475B302C2A37FE1
:100A250019120B88EF4404FED2A3C2A37F09120B4F
:080A35008DAF06120B8DD2A358
:010A3D002296
:080BE7003099FDC2998F99229B
:100B26008B098A0A890BAB09AA0AA90B120AD46097
:100B360013050BE50B7002050A14F9120AD4FF120D
:050B46000BE780E22234
:0A0BDD003098FDC298E599020AED78
:100A3E008B0C8A0D890E8021AB0CAA0DA90E120A01
:100A4E00D4FF640D6018EF640A60137401250EF56F
:100A5E000EE4350DF50DFAA90E120BDD80DAAB0C96
:080A6E00AA0DA90EE4020AED35
:100AA900E4F508FB8013E508640D6016E508640A9F
:100AB9006010AF08120BE77B007A007908120BDD92
:0B0AC90080E47BFF7A097946020B26CF
:020B4B00AE07F3
:100B4D00120B84EF54DFFDD2A3C2A37F01120B8DD4
:0C0B5D00EEC43354E04DFF120B8DD2A308
:010B69002269
:100A7600E4F5B475B302C2A37F03120B8D7F011296
:100A86000B8D7F01120B8DD2A3120B84EF54F1FE56
:100A9600D2A3C2A37F01120B8DEE440CFF120B8D65
:020AA600D2A3D9
:010AA800222B
:1009AA007D30D2A42083FDE4FC7F01120B6A0CBCCB
:1009BA0005F77F1E120BAFAF05120B6A7F0A120BE7
:1009CA00AF0DEDD3943940027D30C2807C61AF0413
:1009DA00120B6A7F0A120BAF7B30AF03120B6A7FCE
:1009EA000A120BAF0BBB3AF20CBC6AE2E4FC7F04BE
:0B09FA00120B6A0CBC05F7D28080A92C
:1008C400E4FEFD7C01C2A47BFF7A097950120B2659
:1008D400120BC0AE07EEC394304006EED3943940F9
:1008E4000CEEC394614026EED3947A5020C280EE7D
:1008F400C39461400FEED3947A50097BFF7A09794F
:1009040067120B26AF06120BE7E4FE80C3BE011983
:10091400ED70BD7D01FC7BFF7A09796A120B26120A
:100924000BC0AE07120BE780A7EE640470A2EC7054
:100934009FFD7C017BFF7A097981120B26120AA99B
:02094400808EA3
:100AFF00E4FDFCFF1208000D7F031208007F0512B2
:100B0F000800D280120A05120A762083030209AA6E
:070B1F002085031208C42227
:100AD400BB010689828A83E0225002E722BBFE0220
:090AE400E32289828A83E4932253
:100AED00BB010689828A83F0225002F722BBFE01E8
:020AFD00F322E2
:00000001FF
