:03000000020ACB26
:0C0ACB00787FE4F6D8FD75810E0209C6A4
:100A65005472616E736D697474696E67206C657418
:090A75007465723A20000D0A00BC
:10080000EFB4090040030208C3900810F8282873C9
:1008100002082B02083C02084D02085E02086F0223
:1008200008800208910208A20208B35395FEED6405
:10083000014C7004439401225394FE225395FDED24
:1008400064014C7004439402225394FD225395FB9F
:10085000ED64014C7004439404225394FB2253959D
:10086000F7ED64014C7004439408225394F722532B
:1008700095EFED64014C7004439410225394EF22E1
:100880005395DFED64014C7004439420225394DFB0
:10089000225395BFED64014C70044394402253945D
:1008A000BF2253957FED64014C7004439480225322
:1008B000947F22E4F595ED64014C70047594FF2259
:0408C000E4F59422A5
:020A94008F0AC7
:100A9600AF0A150AEF600BE4FEEEC3942350F10E85
:020AA60080F7D7
:010AA800222B
:100AA9008F09AF091509EF60077F32120A9480F2A6
:010AB900221A
:090A7E00C2A37F11120A87E4FFF4
:0D0A87005391DF8FB2E59130E5FBAFB22255
:100A3100AE07C2A37F20120A87AF06120A87D2A38C
:0A0A4100D2A57F01120A94C2A5227B
:100ABA00D2A530A5FDC2A37F24120A82D2A3C2A561
:010ACA002209
:1008C400758DE6438E10758780759852758920D290
:1008D4008E439506539402E4F5B475B302C2A37F24
:1008E40019120A82EF4404FED2A3C2A37F09120A9A
:0808F40087AF06120A87D2A3A8
:0108FC0022D9
:080AE1003099FDC2998F9922A2
:1009ED008B098A0A890BAB09AA0AA90B12099B600C
:1009FD0013050BE50B7002050A14F912099BFF1282
:050A0D000AE180E22275
:0A0AD7003098FDC298E5990209B4B9
:1008FD008B0C8A0D890E8021AB0CAA0DA90E120945
:10090D009BFF640D6018EF640A60137401250EF5EA
:10091D000EE4350DF50DFAA90E120AD780DAAB0CDF
:08092D00AA0DA90EE40209B4B1
:020A1200AE072D
:100A1400120A7EEF54DFFDD2A3C2A37F01120A871C
:0C0A2400EEC43354E04DFF120A87D2A349
:010A300022A3
:10093500E4F5B475B302C2A37F03120A877F0112DF
:100945000A877F01120A87D2A3120A7EEF54F1FEAD
:10095500D2A3C2A37F01120A87EE440CFF120A87B5
:02096500D2A31B
:01096700226D
:02096800D2A417
:10096A00750830AD087BFF7A0A79651209EDAF0583
:10097A00120AE17BFF7A0A797B1209EDAF05120AA6
:10098A00317FC8120AA90508E508D3943940D480F2
:01099A00CF8D
:100A4B00E4FEC2A4120ABAAE07EED394FA5007C260
:0A0A5B0080120AE180EED28080EAEA
:1009C600E4FDFCFF1208000D7F031208007F0512EC
:1009D6000800D2801208C412093520830302096870
:0709E600208503120A4B22D9
:10099B00BB010689828A83E0225002E722BBFE025A
:0909AB00E32289828A83E493228D
:1009B400BB010689828A83F0225002F722BBFE0122
:0209C400F3221C
:00000001FF
