:03000000020DF1FD
:0C0DF100787FE4F6D8FD758113020D1820
:100B54000D0A446F6E65210D0A000D0A200D0A521C
:100B64006563656976657220737461727465642E59
:100B7400000D0A000D0A200D0A4E6577205472619B
:100B84006E736D697373696F6E3A000D0A456E6416
:100B9400206F66205472616E736D697373696F6E32
:100BA4002E20526563656976656420002F323030EB
:100BB400207061636B6574732073656E742E2050AE
:100BC40061636B6574206C6F73733A20000D0A4582
:0F0BD4006E74657220436F6D6D656E743A20000C
:1009FE00EFB409004003020AC1900A0EF8282873CA
:100A0E00020A29020A3A020A4B020A5C020A6D0223
:100A1E000A7E020A8F020AA0020AB15395FEED6405
:100A2E00014C7004439401225394FE225395FDED24
:100A3E0064014C7004439402225394FD225395FB9F
:100A4E00ED64014C7004439404225394FB2253959D
:100A5E00F7ED64014C7004439408225394F722532B
:100A6E0095EFED64014C7004439410225394EF22E1
:100A7E005395DFED64014C7004439420225394DFB0
:100A8E00225395BFED64014C70044394402253945D
:100A9E00BF2253957FED64014C7004439480225322
:100AAE00947F22E4F595ED64014C70047594FF2259
:040ABE00E4F59422A5
:020DCB008F098E
:100DCD00AF091509EF600BE4FEEEC3942350F10E4D
:020DDD0080F79D
:010DDF0022F1
:070D9D00A280B392807F0ADF
:100DA4008F08AF081508EF60077F32120DCB80F271
:010DB400221C
:090DB500C2A37F11120DBEE4FF80
:0D0DBE005391DF8FB2E59130E5FBAFB2221B
:100D8300AE07C2A37F20120DBEAF06120DBED2A3C3
:0A0D9300D2A57F01120DCBC2A522EC
:100DE000D2A530A5FDC2A37F24120DB9D2A3C2A5FE
:010DF00022E0
:100C4900758DE6438E10758780759852758920D207
:100C59008E439506539402E4F5B475B302C2A37F9B
:100C690019120DB9EF4404FED2A3C2A37F09120DD4
:080C7900BEAF06120DBED2A3AE
:010C81002250
:080E07003099FDC2998F992278
:100D3F008B0E8A0F8910AB0EAA0FA910120AC26070
:100D4F00130510E5107002050F14F9120AC2FF12F5
:050D5F000E0780E222F6
:0A0DFD003098FDC298E599020ADB68
:100C82008B118A1289138021AB11AA12A913120A9D
:100C9200C2FF640D6018EF640A601374012513F536
:100CA20013E43512F512FAA913120DFD80DAAB1115
:080CB200AA12A913E4020ADBF7
:04080000AB07AA0692
:10080400C3EB9410EA9427401B7C277D10120AFF47
:100814008F0D7E007C277D10120AEDC3EB9FFBEA4F
:100824009EFA8003E4F50DC3EB94E8EA9403401FB9
:100834007C037DE8AF03AE02120AFF8F0E7E007CBC
:10084400037DE8120AEDC3EB9FFBEA9EFA8003E402
:10085400F50EC3EB9464EA9400401D7C007D64AF04
:1008640003AE02120AFF8F0FEF75F064A4FFC3EB0F
:100874009FFBEA95F0FA8003E4F50FC3EB940AEAD0
:100884009400401D7C007D0AAF03AE02120AFF8F64
:1008940010EF75F00AA4FFC3EB9FFBEA95F0FA8012
:1008A40003E4F510AF03AE077430250DF50D743075
:1008B400250EF50E7430250FF50F74302510F51044
:1008C40074302EFEE50DC394314007AF0D120E07B0
:1008D4008007E50EC394314007AF0E120E07800760
:1008E400E50FC394314007AF0F120E078007E510E0
:0F08F400C394314005AF10120E07AF06020E0776
:100CED00E4F50DFB8013E50D640D6016E50D640A4A
:100CFD006010AF0D120E077B007A00790D120DFDFD
:0B0D0D0080E47BFF7A0B7954020D3F5D
:020D6400AE07D8
:100D6600120DB5EF54DFFDD2A3C2A37F01120DBE53
:0C0D7600EEC43354E04DFF120DBED2A3BA
:010D8200224E
:100CBA00E4F5B475B302C2A37F03120DBE7F01121D
:100CCA000DBE7F01120DBED2A3120DB5EF54F1FE77
:100CDA00D2A3C2A37F01120DBEEE440CFF120DBEB9
:020CEA00D2A393
:010CEC0022E5
:100BE300E4FDD2A42083FDE4FC7F01120D837F0585
:100BF300120DCBAF05120D83A280B392800CBC32D1
:100C0300E87F0A120DA4C2807C61AF04120D831227
:100C13000D9D7B31AF03120D83120D9D0BBB3AF477
:100C23000CBC75E6E4FC7F04120D83A280B39280B2
:100C33007F05120DCB0CBC64ED0DEDD3940940027E
:060C4300E4FDD280809E5A
:10090300E4F508F509750A01F50BF50CC2A47BFFA4
:100913007A0B795E120D3F120DE08F08E508C39440
:10092300304007E508D39439400EE508C39461408D
:1009330038E508D3947A5031E50A702DF509C28061
:10094300E508C394614010E508D3947A50097BFF0E
:100953007A0B7975120D3F050CE50C7002050BAF90
:1009630008120E07E4F50880AEE50864017028E577
:10097300097024120DE08F087BFF7A0B7978120D32
:100983003F74302508F508FF120E07750901E4F5D9
:100993000AF50BF50C8080E5086404600302091A6C
:1009A300E50A600302091AF509750A017BFF7A0B50
:1009B300798F120D3FAF0CAE0B1208007BFF7A0B41
:1009C30079B0120D3FC374C8950CFFE4950BFE7C00
:1009D300007D64120AED7DC8120AFF8E0B8F0C1284
:1009E30008007F25120E07E4F50BF50C7BFF7A0B4D
:0B09F30079D1120D3F120CED02091A21
:100D1800E4FDFCFF1209FE0D7F031209FE7F051298
:100D280009FED280120C49120CBA208303020BE38D
:070D380020850312090322CC
:100AC200BB010689828A83E0225002E722BBFE0232
:090AD200E32289828A83E4932265
:100ADB00BB010689828A83F0225002F722BBFE01FA
:020AEB00F322F4
:100AED00EF8DF0A4A8F0CF8CF0A428CE8DF0A42E1D
:020AFD00FE22D7
:100AFF00BC000BBE0029EF8DF084FFADF022E4CCDB
:100B0F00F875F008EF2FFFEE33FEEC33FCEE9DECA3
:100B1F00984005FCEE9DFE0FD5F0E9E4CEFD22EDE9
:100B2F00F8F5F0EE8420D21CFEADF075F008EF2F33
:100B3F00FFED33FD4007985006D5F0F222C398FD24
:050B4F000FD5F0EA22C1
:00000001FF
