:03000000020AE50C
:0C0AE500787FE4F6D8FD75810E020A1F30
:100A7F005472616E736D697474696E67206C6574FE
:090A8F007465723A20000D0A00A2
:10080000EFB4090040030208C3900810F8282873C9
:1008100002082B02083C02084D02085E02086F0223
:1008200008800208910208A20208B35395FEED6405
:10083000014C7004439401225394FE225395FDED24
:1008400064014C7004439402225394FD225395FB9F
:10085000ED64014C7004439404225394FB2253959D
:10086000F7ED64014C7004439408225394F722532B
:1008700095EFED64014C7004439410225394EF22E1
:100880005395DFED64014C7004439420225394DFB0
:10089000225395BFED64014C70044394402253945D
:1008A000BF2253957FED64014C7004439480225322
:1008B000947F22E4F595ED64014C70047594FF2259
:0408C000E4F59422A5
:020AAE008F0AAD
:100AB000AF0A150AEF600BE4FEEEC3942350F10E6B
:020AC00080F7BD
:010AC2002211
:100AC3008F09AF091509EF60077F32120AAE80F272
:010AD3002200
:090A9800C2A37F11120AA1E4FFC0
:0D0AA1005391DF8FB2E59130E5FBAFB2223B
:100A6500AE07C2A37F20120AA1AF06120AA1D2A324
:0A0A7500D2A57F01120AAEC2A5222D
:100AD400D2A530A5FDC2A37F24120A9CD2A3C2A52D
:010AE40022EF
:1008C400758DE6438E10758780759852758920D290
:1008D4008E439506539402E4F5B475B302C2A37F24
:1008E40019120A9CEF4404FED2A3C2A37F09120A80
:0808F400A1AF06120AA1D2A374
:0108FC0022D9
:080AFB003099FDC2998F992288
:0609C9007BFF7A0A79951C
:1009CF008B098A0A890BAB09AA0AA90B1209F460D1
:1009DF0013050BE50B7002050A14F91209F4FF1247
:0509EF000AFB80E2227A
:0A0AF1003098FDC298E599020A0D45
:1008FD008B0C8A0D890E8021AB0CAA0DA90E120945
:10090D00F4FF640D6018EF640A60137401250EF591
:10091D000EE4350DF50DFAA90E120AF180DAAB0CC5
:08092D00AA0DA90EE4020A0D57
:020A4600AE07F9
:100A4800120A98EF54DFFDD2A3C2A37F01120AA1B4
:0C0A5800EEC43354E04DFF120AA1D2A3FB
:010A6400226F
:10096900E4F5B475B302C2A37F03120AA17F011291
:100979000AA17F01120AA1D2A3120A98EF54F1FE2B
:10098900D2A3C2A37F01120AA1EE440CFF120AA14D
:02099900D2A3E7
:01099B002239
:02099C00D2A4E3
:10099E00750830AD087BFF7A0A797F1209CFAF0553
:1009AE00120AFB1209C9AF05120A657F64120AC347
:0B09BE000508E508D3943940DA80D525
:10093500E4FDC2A4120AD4AD07EDC394304017ED0F
:10094500D394395011C280BD30031209C9AF0512C5
:100955000AFBE4FD8007D2807F2D120AFB7F0A1275
:040965000AC380D071
:100A1F00E4FDFCFF1208000D7F031208007F051292
:100A2F000800D2801208C412096920830302099CAE
:070A3F002085031209352296
:1009F400BB010689828A83E0225002E722BBFE0201
:090A0400E32289828A83E4932233
:100A0D00BB010689828A83F0225002F722BBFE01C8
:020A1D00F322C2
:00000001FF
