:030000000209DE14
:0C09DE00787FE4F6D8FD758150020451CA
:10025F000D0A506C6561736520707265737320535E
:10026F005732206F72205357332E000D0A506C6592
:10027F0061736520656E746572206E657720677295
:10028F006F757049443A20000D0A506C65617365B3
:10029F0020656E746572206E657720756E69717555
:1002AF006549443A20000D0A43757272656E7420D9
:1002BF0067726F75704944202620756E6971756578
:0802CF0049442069733A200044
:100451007D017F031209217D017F05120921120609
:100461009D1203371209F67BFF7A02795F1208FCAD
:100471002083307BFF7A02797A1208FC7B007A00B4
:1004810079091209A07BFF7A0279971208FC7B0097
:100491007A0079081209A0AD08AF0912096712089C
:0B04A1003280CD2085CA12083280C5D1
:100967008D0AAD077F3C7E0F120751AD0A7F3D7E92
:040977000F02075113
:100832007F3C7E0F1208AF8F0A7F3D7E0F1208AFFA
:100842008F0B7BFF7A0279B51208FCAF0A1209FFFF
:0A0852007F201209FFAF0B0209FF1F
:0909F60075B405D29375B301221A
:0E09C200C2937F051209D1E4FF1209D1D2932E
:0109D0002204
:0408AF008E0C8F0D0F
:1008B3001209C2EF20E0F9C2937F031209D1E50CBC
:1008C300FF1209D1AF0DE50D1209D1E4FF1209D1D1
:0208D300D293BE
:0108D5002200
:100751008E0B8F0C8D0D1209C2EF20E0F9C2937F31
:10076100061209D1D293C2937F021209D1E50BFF80
:100771001209D1AF0CE50C1209D1AF0D1209D1D27A
:020781009322C1
:10033700E4F5B475B302C2A37F191209D1E4FF1221
:1003470009D1EF4404F50BD2A3C2A37F091209D147
:10035700AF0B1209D1D2A3C2A37F031209D17F0623
:100367001209D17F061209D1D2A3C2A37F111209A4
:10037700D1E4FF1209D1EF54F1F50AD2A3C2A37F4A
:0E038700011209D1E50A440CFF1209D1D2A3DC
:010395002245
:0604AC008B1B8A1C891D58
:1004B200C2A37F141209D1E4FF1209D1EF543FF510
:1004C2001FD2A3C2A37F201209D1E4F51EE51EC3E9
:1004D200951F5025AB1BAA1CA91D120106FF601017
:1004E2001209D17401251DF51DE4351CF51C80058A
:1004F200E4FF1209D1051E80D4D2A3D2A57F141223
:040502000952C2A533
:0105060022D2
:0605B3008B208A21892241
:1005B900D2A530A5FDC2A37F131209D1E4FF120908
:1005C900D1EF543FF524D2A3C2A37F241209D1E469
:1005D900F523E523C39524501EE4FF1209D1AB206E
:1005E900AA21A922EF12014C74012522F522E43532
:0B05F90021F521052380DBD2A3C2A561
:0106040022D3
:0207DC008F3F4D
:1007DE00C2A37F111209D1E4FF1209D1EF54DFF544
:1007EE0040D2A3C2A37F011209D1E53FC43354E026
:0807FE004540FF1209D1D2A30E
:0108060022CF
:10093C008F4DC2A37F031209D1AF4D1209D1AF4D18
:06094C001209D1D2A32222
:020807008F411F
:10080900C2A37F111209D1E4FF1209D1EF54F3F504
:1008190042D2A3C2A37F011209D1E54125E025E017
:080829004542FF1209D1D2A3E0
:0108310022A4
:020886008F439E
:10088800C2A37F111209D1E4FF1209D1EF54FDF57B
:1008980044D2A3C2A37F011209D1E54325E0454410
:0608A800FF1209D1D2A3EA
:0108AE002227
:02085C008F45C6
:10085E00C2A37F111209D1E4FF1209D1EF54EFF5B3
:10086E0046D2A3C2A37F011209D1E545C454F04577
:07087E0046FF1209D1D2A3CD
:010885002250
:0803F5008B0F8A1089118D1293
:1003FD00C2A37F121209D1E4FF1209D1EF54F8F50F
:10040D0013D2A3C2A37F021209D1E5134512FF1225
:10041D0009D1D2A3C2A37F051209D1E4F514E514C5
:10042D00C39512501CAB0FAA10A911120106FF1291
:10043D0009D174012511F511E43510F5100514805D
:03044D00DDD2A35A
:010450002289
:080396008B158A1689178D18DA
:10039E00C2A37F121209D1E4FF1209D1EF54F8F56E
:1003AE0019D2A3C2A37F021209D1E518C454F04595
:1003BE0019FF1209D1D2A3C2A37F221209D1E4F5EB
:1003CE001AE51AC39518501CAB15AA16A9171201D7
:1003DE0006FF1209D174012517F517E43516F51627
:0603EE00051A80DDD2A318
:0103F40022E6
:0C09EA00EF7003C2A522BF0102D2A522BB
:020783008F479E
:10078500C2A37F191209D1E4FF1209D1EF547FF5F5
:1007950048D2A3C2A37F091209D1E547C433333335
:0A07A50054804548FF1209D1D2A389
:0107AF002227
:0207B0008F496F
:1007B200C2A37F191209D1E4FF1209D1EF547FF5C8
:1007C2004AD2A3C2A37F091209D1E549C4333354E3
:0907D200C0454AFF1209D1D2A36F
:0107DB0022FB
:0602D7008B258A26892711
:1002DD00C2A37F141209D1E4FF1209D1EF543FF5E7
:1002ED0029D2A3C2A37F201209D17F011209D17592
:1002FD002801E528C395295025AB25AA26A9271243
:10030D000106FF60101209D174012527F527E43588
:10031D0026F5268005E4FF1209D1052880D4D2A345
:09032D00D2A57F14120952C2A5E9
:0103360022A4
:10098E00ED2401FFE433FEEF29F9EE3AFA120106E7
:02099E00FF2236
:040605008F2A8D2B80
:10060900C2A37F141209D1E4FF1209D1EF543FF5B7
:100619002DD2A3C2A37F201209D17F021209D1AF23
:100629002A1209D1AF2B1209D1752C03E52CC395D8
:100639002D5009E4FF1209D1052C80F0D2A3D2A5CF
:070649007F14120952C2A543
:010650002287
:040651008F2E8D2F2C
:10065500C2A37F141209D1E4FF1209D1EF543FF56B
:1006650031D2A3C2A37F201209D17F031209D1AFD2
:100675002E1209D1AF2F1209D1753003E530C3957C
:10068500315009E4FF1209D1053080F0D2A3D2A57B
:070695007F14120952C2A5F7
:01069C00223B
:10097B000D0A6572726F722E000D0A446F6E65213F
:03098B000D0A0052
:10069D00758DE6438E10758780759852758920D2B9
:1006AD008E439506539402E4F5B475B302C2A37F4D
:1006BD00191209D1E4FF1209D1EF4404F50AD2A3AE
:0E06CD00C2A37F091209D1AF0A1209D1D2A32C
:0106DB0022FC
:0809FF003099FDC2998F992285
:1008FC008B0C8A0D890EAB0CAA0DA90E1201066089
:10090C0013050EE50E7002050D14F9120106FF1207
:05091C0009FF80E2224A
:1009A0003098FDC298E59912014C120106FF020928
:0109B000FF47
:100719008B368A3789388021AB36AA37A938120136
:1007290006FF640D6018EF640A601374012538F53B
:1007390038E43537F537FAA9381209A080DAAB362B
:08074900AA37A938E402014CB3
:04000300AB07AA0697
:10000700C3EB9410EA9427401B7C277D10120170E4
:100017008F327E007C277D1012015EC3EB9FFBEAC7
:100027009EFA8003E4F532C3EB94E8EA9403401F99
:100037007C037DE8AF03AE021201708F337E007C34
:10004700037DE812015EC3EB9FFBEA9EFA8003E49F
:10005700F533C3EB9464EA9400401D7C007D64AFE4
:1000670003AE021201708F34EF75F064A4FFC3EB87
:100077009FFBEA95F0FA8003E4F534C3EB940AEAB0
:100087009400401D7C007D0AAF03AE021201708F01
:1000970035EF75F00AA4FFC3EB9FFBEA95F0FA80F2
:1000A70003E4F535AF03AE0774302532F53274300B
:1000B7002533F53374302534F53474302535F5356B
:1000C70074302EFEE532C394314007AF321209FF78
:1000D7008007E533C394314007AF331209FF800728
:1000E700E534C394314007AF341209FF8007E53583
:0F00F700C394314005AF351209FFAF060209FF70
:10055F00120106FFC394304009EFD394395003EFD3
:10056F008023120106FF6037C3943040F5EFD39418
:10057F003950EFAE4BAF4C7C007D0A12015E8E4BB3
:10058F008F4C12010624D0FFE434FFFEEF254CF50B
:10059F004CEE354BF54B740129F9E43AFA80C3AEB2
:0305AF004BAF4C03
:0105B2002226
:060507008B398A3A893BA2
:10050D00E4FEEEC39D5041AB39AA3AA93B1209A0B6
:10051D00AB39AA3AA93B120106FFC394304014EF40
:10052D00D39439500E7401253BF53BE4353AF53A39
:10053D000E80CFEFB40D06E412014C800B7BFF7AD9
:10054D0009797B1208FC80BAAB39AA3AA93BE402BF
:02055D00014C4F
:1008D600E4F54EFB800EE54E640D6011E54E640AAC
:1008E600600B7B007A00794E1209A080E97BFF7AC3
:0608F6000979840208FCF0
:100921007401A807088002C333D8FCFEF4FC529579
:0B093100BD0104EE429422EC5294221F
:020952008F4FC5
:10095400AF4F154FEF600BE4FEEEC3942350F10E3E
:0209640080F71A
:01096600226E
:1009B1008F50AF501550EF60077F3212095280F20D
:0109C1002213
:0D09D1005391DF8FB2E59130E5FBAFB2220C
:0601C5008B3C8A3D893EDF
:1001CB00E4FFFE90000112011F7810C333CE33CE33
:1001DB00D8F9EE3395E0FDE4FFFEFCC004C005C08A
:1001EB0006C007AB3CAA3DA93E1201067818C333E3
:1001FB00CE33CED8F9EE3395E0FCD003D002D0014C
:10020B00D000EBFFEAFEE9FDEC48FCC004C005C0E2
:10021B0006C007AB3CAA3DA93E90000212011FFE8F
:10022B00D003D002D001D000EBFFEA4EFEE9FDE88F
:10023B00FCC004C005C006C007AB3CAA3DA93E905C
:10024B00000312011FFFD003D002D001D000EB4FEF
:03025B00FFEAFEB9
:01025E00227D
:1006DC00AD07AC06ED7818CEC313CE13D8F91201C2
:1006EC004C740129F9E43AFAEDAE047810CEC31338
:1006FC00CE13D8F912014C740129F9E43AFAEC1230
:0D070C00014C740129F9E43AFAED02014CA8
:10010600BB010689828A83E0225002E722BBFE02F7
:09011600E32289828A83E493222A
:10011F00BB010CE58229F582E5833AF583E0225095
:10012F0006E92582F8E622BBFE06E92582F8E222DF
:0D013F00E58229F582E5833AF583E49322F9
:10014C00BB010689828A83F0225002F722BBFE0192
:02015C00F3228C
:10015E00EF8DF0A4A8F0CF8CF0A428CE8DF0A42EB5
:02016E00FE226F
:10017000BC000BBE0029EF8DF084FFADF022E4CC73
:10018000F875F008EF2FFFEE33FEEC33FCEE9DEC3C
:10019000984005FCEE9DFE0FD5F0E9E4CEFD22ED82
:1001A000F8F5F0EE8420D21CFEADF075F008EF2FCC
:1001B000FFED33FD4007985006D5F0F222C398FDBD
:0501C0000FD5F0EA225A
:00000001FF
