:1004F4004869212049276D20736C617665206672F6
:100504006F6D2067726F757020000D0A00506C6566
:1005140061736520656E746572206E6577206772FD
:100524006F757049443A2000506C656173652065AD
:100534006E746572206E657720756E697175654994
:10054400443A200067726F757049443A2000756E12
:100554006971756549443A200000000000000000FC
:0B05640000000000000000000000008C
:1001730078087C007D007BFF7A05795D7E007F1225
:100183001200D3E4F51AF51B751C04751D05FDFF5C
:100193001208CFE4FD7F041208CFE4FD7F061208A6
:1001A300CF7D017F031208CF1207141209677F9BCB
:1001B3007E0F1208688F1C7F9C7E0F1208688F1DAC
:1001C3001206317BFF7A0479F412088FAF1C1205F3
:1001D3006F7BFF7A05790E12088F30830302027456
:1001E3001209677BFF7A05791112088F7B007A0069
:1001F300791C12092974D0251CF51C7BFF7A05791B
:100203000E12088F7BFF7A05792C12088F7B007AF8
:1002130000791D12092974D0251DF51D7BFF7A0570
:10022300790E12088FAD1C7F9B7E0F120836AD1D11
:100233007F9C7E0F1208367BFF7A05794812088F60
:100243007F9B7E0F12086812056F7F201209707B57
:10025300FF7A05795212088F7F9C7E0F120868126D
:10026300056F7BFF7A05790E12088F1206310201A2
:0B027300DDAD1DAF1C1203D70201DD42
:0909670075B405D29375B30122A9
:0E094B00C2937F0512095AE4FF12095AD29393
:01095900227B
:040868008E1E8F1F32
:10086C0012094BEF20E0F9C2937F0312095AE51EDF
:10087C00FF12095AAF1FE51F12095AE4FF12095A59
:02088C00D29305
:01088E002247
:100836008E1E8F1F8D2012094BEF20E0F9C2937F89
:100846000612095AD293C2937F0212095AE51EFF75
:1008560012095AAF1FE51F12095AAF2012095AD2C0
:020866009322DB
:1008B40012480000000000000000000000000000DA
:0A08C400000000000146000147009B
:1008EA00E53AB53D0DE53BB53E08E53CB53F037F2E
:0508FA0001227F002235
:1008FF00E53912013F900001E53A120151900002D3
:05090F00E53B0201516F
:10063100E4F5B475B302C2A37F1912095AE4FF129B
:10064100095AEF4404F51FD2A3C2A37F0912095A24
:10065100AF1F12095AD2A3C2A37F0312095A7F10F6
:1006610012095A7F1012095AD2A3C2A37F1112098B
:100671005AE4FF12095AEF54F1F51ED2A3C2A37F27
:0E0681000112095AE51E440CFF12095AD2A3B9
:01068F002248
:06078E008B418A42894301
:10079400C2A37F2012095AE4F544AB41AA42A943FB
:1007A400854482758300120112FF12095A0544E53B
:1007B40044C3941040E4D2A3D2A57F10120914C2FA
:0107C400A58F
:0107C5002211
:0607C6008B5A8A5B895C7E
:1007CC00D2A530A5FDC2A37F2412095AE4F55DE43D
:1007DC00FF12095AAB5AAA5BA95C855D827583002E
:1007EC00EF120151055DE55DC3941040E2D2A3C246
:0107FC00A557
:0107FD0022D9
:10032B0052656365697665642054726166666963BC
:10033B0020496E666F210D0A00526563656976650B
:10034B00642048422052657175657374210D0A0053
:10035B0052656C6179696E672048422052657175F0
:10036B00657374210D0A0052656C6179696E6720A3
:10037B004842210D0A0045766572796F6E652073D0
:10038B00656E642068656172746265617421210D0C
:10039B000A0056616C6964207061636B65740D0AA9
:1003AB0000556E6964656E74696669656420677271
:1003BB006F757049442E2E0D0A0048656172746288
:0C03CB006561742053656E74210D0A00FA
:0403D7008F1E8D1FC9
:1003DB007B007A0079201205D1EF7003020467E5E8
:1003EB0020B401167BFF7A03792B12088F7B007ADE
:1003FB00007920AD1E120753805FE5206402702C3C
:10040B007BFF7A03794412088FE521B51E0CE52298
:10041B00B51F07AD1FAF1E020690E521C3951E4009
:10042B003B12027E7BFF7A03795B8015E520B403D8
:10043B0013E521C3951E400C12027E7BFF7A0379D4
:10044B007202088FE520B404137BFF7A03798112C3
:0C045B00088FAD1FAF1E12069012027E2B
:010467002272
:0605D1008B308A318932F3
:1005D700E4F533C2A4D2A520A510E533C394325065
:1005E700097F0A120914053380ED20A505C2A57FEE
:1005F7000022C2A37F2412095AE4F533E4FF12094B
:100607005AAB30AA31A932853382758300EF1201C4
:10061700510533E533C3941040E2D2A3C2A57BFF53
:090627007A03799D12088F7F010E
:0106300022A7
:10075300AF058F82758300A312011224FE600E146D
:10076300601224027015C280D284D28622D280C243
:1007730084D28622D280D284C286227BFF7A0379F6
:0B078300AC12088FC280C284C2862224
:100690007530038F318D32854633754004743025B3
:1006A00040F8E4F60540E540B410F2D2A4E4F54089
:1006B0007B007A00793012078EAF40120914054092
:1006C000E540C3940340E905467BFF7A0379C50200
:0206D000088F91
:06027E007B007A007920EC
:060284008B308A31893243
:10028A001200F9FF64016004EFB40410E4F533F5D9
:10029A0034AB30AA31A9329000018025AB30AA31A3
:1002AA00A9321200F9FF64026004EFB40318900047
:1002BA0001120112F533900002120112F534900076
:1002CA0003120112F53578367C007D007B007A0036
:1002DA0079337E007F031200D31206D2EF7041E514
:1002EA004775F003A42448F9E4FAFBC003C002C02E
:1002FA000178397C00FD7A007933FE7F031200D33E
:10030A00D001D002D0031208FFD2A4AB30AA31A97F
:10031A003212078E0547E547D394054003E4F547B3
:01032A0022B0
:1006D200E4F539783A7C007D007B007A0079367E39
:1006E200007F031200D3E53975F003A42448F9E42E
:1006F200FAFB783D7C00FDFE7F031200D31208EA6C
:10070200EF60037F01220539E539C3940640C47FB7
:0107120000E6
:0107130022C3
:10071400758DE6438E10758780759852758920D241
:100724008E439506439402E4F5B475B302C2A37FE5
:100734001912095AE4FF12095AEF4404F51ED2A310
:0E074400C2A37F0912095AAF1E12095AD2A38E
:010752002284
:080970003099FDC2998F992214
:10088F008B418A428943AB41AA42A9431200F960C6
:10089F00130543E5437002054214F91200F9FF12E4
:0508AF00097080E22247
:10056F007D02ED1460071470067E6480027E0AEF30
:10057F00C39E4015EF8EF0842430FC741E2DF8A618
:10058F0004EF8EF084AFF08006741E2DF87630DD08
:10059F00D1EF2430F51EE520C3943140047D028055
:1005AF0009E51FC3943140027D01EDC39400401152
:1005BF00ED9403500C741E2DF8E6FF1209701D8088
:0105CF00E942
:0105D0002208
:100929003098FDC298E59912013F1200F9FF0209BA
:01093900704D
:1007FE008B5E8A5F89608021AB5EAA5FA960120062
:10080E00F9FF640D6018EF640A601374012560F53A
:10081E0060E4355FF55FFAA96012092980DAAB5EF4
:08082E00AA5FA960E402013F8A
:1008CF007401A807088002C333D8FCFEF4FC5295CC
:0B08DF00BD0104EE429422EC52942272
:020914008F450D
:10091600AF451545EF600BE4FEEEC3942350F10E90
:0209260080F758
:0109280022AC
:10093A008F61AF611561EF60077F3212091480F28F
:01094A00228A
:0D095A005391DF8FB2E59130E5FBAFB22283
:030000000204688F
:0C046800787FE4F6D8FD7581610204AFD6
:10000300E709F608DFFA8046E709F208DFFA803EDF
:1000130088828C83E709F0A3DFFA8032E309F608CC
:10002300DFFA8078E309F208DFFA807088828C8334
:10003300E309F0A3DFFA806489828A83E0A3F608E8
:10004300DFFA805889828A83E0A3F208DFFA804CC2
:1000530080D280FA80C680D4806980F28033801099
:1000630080A680EA809A80A880DA80E280CA803302
:1000730089828A83ECFAE493A3C8C582C8CCC5837A
:10008300CCF0A3C8C582C8CCC583CCDFE9DEE7804A
:100093000D89828A83E493A3F608DFF9ECFAA9F0C9
:1000A300EDFB2289828A83ECFAE0A3C8C582C8CC1F
:1000B300C583CCF0A3C8C582C8CCC583CCDFEADE38
:1000C300E880DB89828A83E493A3F208DFF980CC9A
:1000D30088F0EF60010E4E60C388F0ED2402B40493
:1000E3000050B9F582EB2402B4040050AF2323453A
:0600F3008223900053730C
:1000F900BB010689828A83E0225002E722BBFE0205
:09010900E32289828A83E4932237
:10011200BB010CE58229F582E5833AF583E02250A2
:1001220006E92582F8E622BBFE06E92582F8E222EC
:0D013200E58229F582E5833AF583E4932206
:10013F00BB010689828A83F0225002F722BBFE019F
:02014F00F32299
:10015100F8BB010DE58229F582E5833AF583E8F0E4
:10016100225006E92582C8F622BBFE05E92582C890
:02017100F22278
:10047400020173E493A3F8E493A34003F68001F22A
:1004840008DFF48029E493A3F85407240CC8C33389
:10049400C4540F4420C8834004F456800146F6DF58
:1004A400E4800B01020408102040809008B4E47E2C
:1004B400019360BCA3FF543F30E509541FFEE4934D
:1004C400A360010ECF54C025E060A840B8E493A314
:1004D400FAE493A3F8E493A3C8C582C8CAC583CA3F
:1004E400F0A3C8C582C8CAC583CADFE9DEE780BEF7
:0108CE000029
:00000001FF
