:10059A004869212049276D20736C6176652066724F
:1005AA006F6D2067726F757020000D0A00506C65C0
:1005BA0061736520656E746572206E657720677257
:1005CA006F757049443A2000506C65617365206507
:1005DA006E746572206E657720756E6971756549EE
:1005EA00443A200067726F757049443A2000756E6C
:1005FA006971756549443A20000000000000000056
:0B060A000000000000000000000000E5
:10019F0078007C007D017BFF7A0679037E007F1259
:1001AF001200D3E4900012F0A3F0A37404F0A304A0
:1001BF00F0E4FDFF120A71E4FD7F04120A71E4FD01
:1001CF007F06120A717D017F03120A7112090A124A
:1001DF000B077F9B7E0F1209FA900014EFF07F9CA4
:1001EF007E0F1209FA900015EFF01207717BFF7A5C
:1001FF0005799A1209C7900014E0FF1206157BFFCC
:10020F007A0579B41209C73083030202B5120B07BE
:10021F007BFF7A0579B71209C77B017A007914122F
:10022F000ADA900014E024D0F07BFF7A0579B4123B
:10023F0009C77BFF7A0579D21209C77B017A00794A
:10024F0015120ADA900015E024D0F07BFF7A0579B9
:10025F00B41209C7900014E0FD7F9B7E0F12094E68
:10026F00900015E0FD7F9C7E0F12094E7BFF7A05F3
:10027F0079EE1209C77F9B7E0F1209FA1206157FBE
:10028F0020120B107BFF7A0579F81209C77F9C7E2D
:10029F000F1209FA1206157BFF7A0579B41209C7F6
:1002AF00120771020216900014E0FFA3E0FD120383
:0402BF00A70202167A
:090B070075B405D29375B3012207
:0E0AEB00C2937F05120AFAE4FF120AFAD293B0
:010AF90022DA
:0809FA00900016EEF0A3EFF0EF
:100A0200120AEBEF20E0F9C2937F03120AFA900078
:100A120016E0FF120AFA900016A3E0FF120AFAE4A7
:060A2200FF120AFAD29354
:010A280022AB
:10094E00900016EEF0A3EFF0A3EDF0120AEBEF20FD
:10095E00E0F9C2937F06120AFAD293C2937F021273
:10096E000AFA900016E0FF120AFA900016A3E0FFB2
:0E097E00120AFA900018E0FF120AFAD2932231
:100A53005200400000000000000000000000000001
:0D0A6300000000000041003E0041003F0087
:100A2900900036E0FF900033E0B5071B900037E0F7
:100A3900FF900034E0B5070F900038E0FF900035D3
:0A0A4900E0B507037F01227F0022C1
:100A8D00900032E012013F900033E090000112011E
:0B0A9D0051900034E090000202015173
:10077100E4F5B475B302C2A37F19120AFAE4FF12B9
:100781000AFAEF4404900017F0D2A3C2A37F091222
:100791000AFA900017E0FF120AFAD2A3C2A37F035C
:1007A100120AFA7F10120AFA7F10120AFAD2A3C2B1
:1007B100A37F11120AFAE4FF120AFAEF54F1900032
:1007C10016F0D2A3C2A37F01120AFA900016E044E8
:0707D1000CFF120AFAD2A38B
:0107D80022FE
:0B087600900039EBF0A3EAF0A3E9F0DA
:10088100C2A37F20120AFAE490003CF090003CE001
:10089100FFC39410501F900039E0FBA3E0FAA3E0DE
:1008A100F98F82758300120112FF120AFA90003C3F
:1008B100E004F080D7D2A3D2A57F10120AA8C2A566
:0108C1002214
:0B08C200900052EBF0A3EAF0A3E9F075
:1008CD00D2A530A5FDC2A37F24120AFAE4900055EB
:1008DD00F0E4FF120AFA900052E0FBA3E0FAA3E065
:1008ED00F9A3E0F582758300EF120151900055E0F8
:0C08FD0004F0E0C3941040D9D2A3C2A5BF
:0109090022CB
:100462005265636569766564205472616666696384
:1004720020496E666F210D0A0052656365697665D3
:10048200642048422052657175657374210D0A001B
:1004920052656C6179696E672048422052657175B8
:1004A200657374210D0A0052656C6179696E67206B
:1004B2004842210D0A0045766572796F6E65207398
:1004C200656E642068656172746265617421210DD4
:1004D2000A0056616C6964207061636B65740D0A71
:1004E20000556E6964656E74696669656420677239
:1004F2006F757049442E2E0D0A0048656172746250
:0C0502006561742053656E74210D0A00C1
:0803A700900016EFF0A3EDF049
:1003AF007B017A007918120690EF700302046190B6
:1003BF000018E0B4011A7BFF7A0479621209C77B37
:1003CF00017A007918900016E0FD12098C02045E84
:1003DF00900018E06402703C7BFF7A04797B12096D
:1003EF00C7900016E0FF900019E0B5070F900017B7
:1003FF00E0FD90001AE0B50503020706900016E035
:10040F00FF900019E0D39F50497BFF7A0479921235
:10041F0009C7803B900018E0B40319900016E0FF65
:10042F00900019E0C39F400C1202C37BFF7A04793E
:10043F00A90209C7900018E0B404177BFF7A04796A
:10044F00B81209C7900016E0FFA3E0FD12070612CD
:02045F0002C3D6
:010461002278
:0B069000900028EBF0A3EAF0A3E9F0D3
:10069B00E4A3F0C2A4D2A520A51690002BE0C3942E
:1006AB0032500D7F0A120AA890002BE004F080E76D
:1006BB0020A505C2A57F0022C2A37F24120AFAE45B
:1006CB0090002BF0E4FF120AFA900028E0FBA3E065
:1006DB00FAA3E0F9A3E0F582758300EF12015190C4
:1006EB00002BE004F0E0C3941040D9D2A3C2A57B49
:0A06FB00FF7A0479D41209C77F01C9
:0107050022D1
:10098C00AF058F82758300A312011224FE600E1432
:10099C00601224027015C280D284D28622D280C208
:1009AC0084D28622D280D284C286227BFF7A0479BA
:0B09BC00E31209C7C280C284C2862279
:100706009000287403F0A3EFF0A3EDF090003EE014
:1007160090002BF09000387404F0900038E0FFC38E
:100726009410501474282FF582E43400F583E4F015
:10073600900038E004F080E2D2A4E4900038F07B28
:10074600017A007928120876900038E0FF120AA88C
:10075600900038E004F0E0C3940340E390003EE0EC
:0B07660004F07BFF7A0479FC0209C755
:0602C3007B017A007918AE
:0B02C900900028EBF0A3EAF0A3E9F09E
:1002D4001200F9FF64016004EFB40417E490002CE9
:1002E400F0A3F0900028E0FBA3E0FAA3E0F990006B
:1002F40001802E900028E0FBA3E0FAA3E0F91200AD
:10030400F9FF64026004EFB4031E900001120112AD
:1003140090002CF090000212011290002DF0900039
:100324000312011290002EF0782F7C007D017B01D6
:100334007A00792C7E007F031200D31207D9EF7064
:100344006190003FE075F003A42440F9740035F097
:10035400FA7B01C003C002C00178327C007D017ABF
:1003640000792C7E007F031200D3D001D002D00389
:10037400120A8D90003FE004F0E0D394054002E4BB
:10038400F0D2A4E490002BF0900028E0FBA3E0FA64
:10039400A3E0F912087690002BE004F0E0C3940285
:0203A40040E631
:0103A6002234
:1007D900E4900032F078337C007D017B017A007966
:1007E9002F7E007F031200D3900032E075F003A43E
:1007F9002440F9740035F0FA7B0178367C007D01DC
:100809007E007F031200D3120A29EF60037F0122C1
:0E081900900032E004F0E0C3940640B97F0086
:0108270022AE
:10090A00758DE6438E10758780759852758920D249
:10091A008E439506439402E4F5B475B302C2A37FED
:10092A0019120AFAE4FF120AFAEF4404900016F0C8
:10093A00D2A3C2A37F09120AFA900016E0FF120A94
:03094A00FAD2A33B
:01094D002287
:080B10003099FDC2998F992272
:1009C700900039EBF0A3EAF0A3E9F0900039E0FBDF
:1009D700A3E0FAA3E0F91200F96017900039A3E445
:1009E70075F001120189A9F0FA1200F9FF120B1034
:0309F70080D92282
:100615007D02ED1460071470067E6480027E0AEF89
:10062500C39E401BEF8EF0842430FC74162DF5829A
:10063500E43400F583ECF0EF8EF084AFF0800D74B8
:10064500162DF582E43400F5837430F0DDC4EF2413
:1006550030900016F0900018E0C3943140047D02FC
:10066500800B900017E0C3943140027D01EDC394E7
:10067500004017ED9403501274162DF582E43400F2
:0A068500F583E0FF120B101D80E367
:01068F002248
:100ADA003098FDC298E59912013F1200F9FF020B06
:010AEA0010FB
:10082800900056EBF0A3EAF0A3E9F080229000567E
:10083800E0FBA3E0FAA3E0F91200F9FF640D601FE2
:10084800EF640A601A900057E475F0011201739082
:100858000056E0FBA3E0FAA3E0F9120ADA80CE9092
:0E0868000056E0FBA3E0FAA3E0F9E402013F32
:100A71007401A807088002C333D8FCFEF4FC529528
:0C0A8100EDB40104EE429422EC529422E9
:050AA80090003DEFF09D
:100AAD0090003DE0FF14F0EF600BE4FEEEC39423E5
:050ABD0050EE0E80F771
:010AC2002211
:100AC300900059EFF0900059E0FF14F0EF60077FBA
:070AD30032120AA880EF2295
:0D0AFA005391DF8FB2E59130E5FBAFB222E2
:0300000002050EE8
:0C050E00787FE4F6D8FD758107020555E2
:10000300E709F608DFFA8046E709F208DFFA803EDF
:1000130088828C83E709F0A3DFFA8032E309F608CC
:10002300DFFA8078E309F208DFFA807088828C8334
:10003300E309F0A3DFFA806489828A83E0A3F608E8
:10004300DFFA805889828A83E0A3F208DFFA804CC2
:1000530080D280FA80C680D4806980F28033801099
:1000630080A680EA809A80A880DA80E280CA803302
:1000730089828A83ECFAE493A3C8C582C8CCC5837A
:10008300CCF0A3C8C582C8CCC583CCDFE9DEE7804A
:100093000D89828A83E493A3F608DFF9ECFAA9F0C9
:1000A300EDFB2289828A83ECFAE0A3C8C582C8CC1F
:1000B300C583CCF0A3C8C582C8CCC583CCDFEADE38
:1000C300E880DB89828A83E493A3F208DFF980CC9A
:1000D30088F0EF60010E4E60C388F0ED2402B40493
:1000E3000050B9F582EB2402B4040050AF2323453A
:0600F3008223900053730C
:1000F900BB010689828A83E0225002E722BBFE0205
:09010900E32289828A83E4932237
:10011200BB010CE58229F582E5833AF583E02250A2
:1001220006E92582F8E622BBFE06E92582F8E222EC
:0D013200E58229F582E5833AF583E4932206
:10013F00BB010689828A83F0225002F722BBFE019F
:02014F00F32299
:10015100F8BB010DE58229F582E5833AF583E8F0E4
:10016100225006E92582C8F622BBFE05E92582C890
:02017100F22278
:10017300C5F0F8A3E028F0C5F0F8E5821582700217
:060183001583E038F022B4
:10018900A3F8E0C5F025F0F0E58215827002158329
:06019900E0C838F0E82286
:10051A0002019FE493A3F8E493A34003F68001F257
:10052A0008DFF48029E493A3F85407240CC8C333E2
:10053A00C4540F4420C8834004F456800146F6DFB1
:10054A00E4800B0102040810204080900A53E47EE4
:10055A00019360BCA3FF543F30E509541FFEE493A6
:10056A00A360010ECF54C025E060A840B8E493A36D
:10057A00FAE493A3F8E493A3C8C582C8CAC583CA98
:10058A00F0A3C8C582C8CAC583CADFE9DEE780BE50
:010A70000085
:00000001FF
