:1005AC004869212049276D20736C6176652066723D
:1005BC006F6D2067726F757020000D0A00506C65AE
:1005CC0061736520656E746572206E657720677245
:1005DC006F757049443A2000506C656173652065F5
:1005EC006E746572206E657720756E6971756549DC
:1005FC00443A200067726F757049443A2000756E5A
:10060C006971756549443A20000000000000000043
:0B061C000000000000000000000000D3
:10019F0078007C007D017BFF7A0679157E007F1247
:1001AF001200D3E4900012F0A3F0A37404F0A304A0
:1001BF00F0E4FDFF120ABBE4FD7F04120ABBE4FD6D
:1001CF007F06120ABB7D017F03120ABB12091C12A4
:1001DF000B687F9B7E0F1209D9900014EFF07F9C64
:1001EF007E0F1209D9900015EFF01207837BFF7A6B
:1001FF000579AC120A5B900014E0FF1206277BFF13
:10020F007A0579C6120A5B3083030202B5120B68B6
:10021F007BFF7A0579C9120A5B7B017A0079141288
:10022F000B3B900014E024D0F07BFF7A0579C612C7
:10023F000A5B7BFF7A0579E4120A5B7B017A00790E
:10024F0015120B3B900015E024D0F07BFF7A057957
:10025F00C6120A5B900014E0FD7F9B7E0F120960AF
:10026F00900015E0FD7F9C7E0F1209607BFF7A06E0
:10027F007900120A5B7F9B7E0F1209D91206277F26
:10028F0020120B1C7BFF7A06790A120A5B7F9C7E79
:10029F000F1209D91206277BFF7A0579C6120A5B5E
:1002AF00120783020216900014E0FFA3E0FD120371
:0402BF00A70202167A
:090B680075B405D29375B30122A6
:0E0B4C00C2937F05120B5BE4FF120B5BD2938A
:010B5A002278
:0809D900900016EEF0A3EFF010
:1009E100120B4CEF20E0F9C2937F03120B5B9000D6
:1009F10016E0FF120B5B900016A3E0FF120B5BE405
:060A0100FF120B5BD29313
:010A070022CC
:10096000900016EEF0A3EFF0A3EDF0120B4CEF2089
:10097000E0F9C2937F06120B5BD293C2937F0212FF
:100980000B5B900016E0FF120B5B900016A3E0FFDC
:0E099000120B5B900018E0FF120B5BD293225B
:100A7F0052004000000000000000000000000000D5
:0D0A8F00000000000041003E0041003F005B
:100A0800900036E0FF900033E0B5071B900037E018
:100A1800FF900034E0B5070F900038E0FF900035F4
:0A0A2800E0B507037F01227F0022E2
:100AD700900032E012013F900033E09000011201D4
:0B0AE70051900034E090000202015129
:10078300E4F5B475B302C2A37F19120B5BE4FF1245
:100793000B5BEF4404900017F0D2A3C2A37F0912AE
:1007A3000B5B900017E0FF120B5BD2A3C2A37F0386
:1007B300120B5B7F10120B5B7F10120B5BD2A3C279
:1007C300A37F11120B5BE4FF120B5BEF54F190005C
:1007D30016F0D2A3C2A37F01120B5B900016E04474
:0707E3000CFF120B5BD2A317
:0107EA0022EC
:0B088800900039EBF0A3EAF0A3E9F0C8
:10089300C2A37F20120B5BE490003CF090003CE08D
:1008A300FFC39410501F900039E0FBA3E0FAA3E0CC
:1008B300F98F82758300120112FF120B5B90003CCB
:1008C300E004F080D7D2A3D2A57F10120AF2C2A50A
:0108D3002202
:0B08D400900052EBF0A3EAF0A3E9F063
:1008DF00D2A530A5FDC2A37F24120B5BE490005577
:1008EF00F0E4FF120B5B900052E0FBA3E0FAA3E0F1
:1008FF00F9A3E0F582758300EF120151900055E0E6
:0C090F0004F0E0C3941040D9D2A3C2A5AC
:01091B0022B9
:100474005265636569766564205472616666696372
:1004840020496E666F210D0A0052656365697665C1
:10049400642048422052657175657374210D0A0009
:1004A40052656C6179696E672048422052657175A6
:1004B400657374210D0A0052656C6179696E672059
:1004C4004842210D0A0045766572796F6E65207386
:1004D400656E642068656172746265617421210DC2
:1004E4000A0056616C6964207061636B65740D0A5F
:1004F40000556E6964656E74696669656420677227
:100504006F757049442E2E0D0A004865617274623D
:0C0514006561742053656E74210D0A00AF
:0803A700900016EFF0A3EDF049
:1003AF007B017A0079181206A2EF70030204739092
:1003BF000018E0B4011A7BFF7A047974120A5B7B90
:1003CF00017A007918900016E0FD12099E02047060
:1003DF00900018E06402704EA3E02430FF120B1C53
:1003EF0090001AE02430FF120B1C7BFF7A04798DEA
:1003FF00120A5B900016E0FF900019E0B5070F900E
:10040F000017E0FD90001AE0B505030207189000F1
:10041F0016E0FF900019E0D39F50497BFF7A0479D3
:10042F00A4120A5B803B900018E0B40319900016E9
:10043F00E0FF900019E0C39F400C1202C37BFF7ACC
:10044F000479BB020A5B900018E0B404177BFF7AB3
:10045F000479CA120A5B900016E0FFA3E0FD1207B1
:04046F00181202C39A
:010473002266
:0B06A200900028EBF0A3EAF0A3E9F0C1
:1006AD00E4A3F0C2A4D2A520A51690002BE0C3941C
:1006BD0032500D7F0A120AF290002BE004F080E711
:1006CD0020A505C2A57F0022C2A37F24120B5BE4E7
:1006DD0090002BF0E4FF120B5B900028E0FBA3E0F1
:1006ED00FAA3E0F9A3E0F582758300EF12015190B2
:1006FD00002BE004F0E0C3941040D9D2A3C2A57B37
:0A070D00FF7A0479E6120A5B7F010F
:0107170022BF
:10099E00AF058F82758300A312011224FE600E1420
:1009AE00601224027015C280D284D28622D280C2F6
:1009BE0084D28622D280D284C286227BFF7A0479A8
:0B09CE00F5120A5BC280C284C28622C0
:100718009000287403F0A3EFF0A3EDF090003EE002
:1007280090002BF09000387404F0900038E0FFC37C
:100738009410501474282FF582E43400F583E4F003
:10074800900038E004F080E2D2A4E4900038F07B16
:10075800017A007928120888900038E0FF120AF21E
:10076800900038E004F0E0C3940340E390003EE0DA
:0B07780004F07BFF7A05790E020A5B9B
:0602C3007B017A007918AE
:0B02C900900028EBF0A3EAF0A3E9F09E
:1002D4001200F9FF64016004EFB40417E490002CE9
:1002E400F0A3F0900028E0FBA3E0FAA3E0F990006B
:1002F40001802E900028E0FBA3E0FAA3E0F91200AD
:10030400F9FF64026004EFB4031E900001120112AD
:1003140090002CF090000212011290002DF0900039
:100324000312011290002EF0782F7C007D017B01D6
:100334007A00792C7E007F031200D31207EBEF7052
:100344006190003FE075F003A42440F9740035F097
:10035400FA7B01C003C002C00178327C007D017ABF
:1003640000792C7E007F031200D3D001D002D00389
:10037400120AD790003FE004F0E0D394054002E471
:10038400F0D2A4E490002BF0900028E0FBA3E0FA64
:10039400A3E0F912088890002BE004F0E0C3940273
:0203A40040E631
:0103A6002234
:1007EB00E4900032F078337C007D017B017A007954
:1007FB002F7E007F031200D3900032E075F003A42C
:10080B002440F9740035F0FA7B0178367C007D01C9
:10081B007E007F031200D3120A08EF60037F0122D0
:0E082B00900032E004F0E0C3940640B97F0074
:01083900229C
:10091C00758DE6438E10758780759852758920D237
:10092C008E439506439402E4F5B475B302C2A37FDB
:10093C0019120B5BE4FF120B5BEF4404900016F0F2
:10094C00D2A3C2A37F09120B5B900016E0FF120B1F
:03095C005BD2A3C8
:01095F002275
:0F0B0D00A3E475F001120189A9F0FA1200F9FFB3
:080B1C003099FDC2998F992266
:100A5B00900039EBF0A3EAF0A3E9F0900039E0FB4A
:100A6B00A3E0FAA3E0F91200F96008900039120B29
:040A7B000D80E822E0
:100627007D02ED1460071470067E6480027E0AEF77
:10063700C39E401BEF8EF0842430FC74162DF58288
:10064700E43400F583ECF0EF8EF084AFF0800D74A6
:10065700162DF582E43400F5837430F0DDC4EF2401
:1006670030900016F0900018E0C3943140047D02EA
:10067700800B900017E0C3943140027D01EDC394D5
:10068700004017ED9403501274162DF582E43400E0
:0A069700F583E0FF120B1C1D80E349
:0106A1002236
:100B3B003098FDC298E59912013F1200F9FF020BA4
:010B4B001C8D
:10083A00900056EBF0A3EAF0A3E9F080229000566C
:10084A00E0FBA3E0FAA3E0F91200F9FF640D601FD0
:10085A00EF640A601A900057E475F0011201739070
:10086A000056E0FBA3E0FAA3E0F9120B3B80CE901E
:0E087A000056E0FBA3E0FAA3E0F9E402013F20
:0B0A3200900059EBF0A3EAF0A3E9F0FC
:100A3D00E4FEEEC39D5016900059E0FBA3E475F063
:0D0A4D0001120189A9F0FA120B3B0E80E5A1
:010A5A002279
:0B0A9D0090005CEBF0A3EAF0A3E9F08E
:100AA800E4FEEEC39D500B90005CE0FB120B0D0EB4
:020AB80080F0CC
:010ABA002219
:100ABB007401A807088002C333D8FCFEF4FC5295DE
:0C0ACB00EDB40104EE429422EC5294229F
:050AF20090003DEFF053
:100AF70090003DE0FF14F0EF600BE4FEEEC394239B
:050B070050EE0E80F726
:010B0C0022C6
:100B240090005FEFF090005FE0FF14F0EF60077F4C
:070B340032120AF280EF22E9
:0D0B5B005391DF8FB2E59130E5FBAFB22280
:03000000020520D6
:0C052000787FE4F6D8FD758107020567BE
:10000300E709F608DFFA8046E709F208DFFA803EDF
:1000130088828C83E709F0A3DFFA8032E309F608CC
:10002300DFFA8078E309F208DFFA807088828C8334
:10003300E309F0A3DFFA806489828A83E0A3F608E8
:10004300DFFA805889828A83E0A3F208DFFA804CC2
:1000530080D280FA80C680D4806980F28033801099
:1000630080A680EA809A80A880DA80E280CA803302
:1000730089828A83ECFAE493A3C8C582C8CCC5837A
:10008300CCF0A3C8C582C8CCC583CCDFE9DEE7804A
:100093000D89828A83E493A3F608DFF9ECFAA9F0C9
:1000A300EDFB2289828A83ECFAE0A3C8C582C8CC1F
:1000B300C583CCF0A3C8C582C8CCC583CCDFEADE38
:1000C300E880DB89828A83E493A3F208DFF980CC9A
:1000D30088F0EF60010E4E60C388F0ED2402B40493
:1000E3000050B9F582EB2402B4040050AF2323453A
:0600F3008223900053730C
:1000F900BB010689828A83E0225002E722BBFE0205
:09010900E32289828A83E4932237
:10011200BB010CE58229F582E5833AF583E02250A2
:1001220006E92582F8E622BBFE06E92582F8E222EC
:0D013200E58229F582E5833AF583E4932206
:10013F00BB010689828A83F0225002F722BBFE019F
:02014F00F32299
:10015100F8BB010DE58229F582E5833AF583E8F0E4
:10016100225006E92582C8F622BBFE05E92582C890
:02017100F22278
:10017300C5F0F8A3E028F0C5F0F8E5821582700217
:060183001583E038F022B4
:10018900A3F8E0C5F025F0F0E58215827002158329
:06019900E0C838F0E82286
:10052C0002019FE493A3F8E493A34003F68001F245
:10053C0008DFF48029E493A3F85407240CC8C333D0
:10054C00C4540F4420C8834004F456800146F6DF9F
:10055C00E4800B0102040810204080900A7FE47EA6
:10056C00019360BCA3FF543F30E509541FFEE49394
:10057C00A360010ECF54C025E060A840B8E493A35B
:10058C00FAE493A3F8E493A3C8C582C8CAC583CA86
:10059C00F0A3C8C582C8CAC583CADFE9DEE780BE3E
:010A9C000059
:00000001FF
